{
  "_format": "hh-sol-artifact-1",
  "contractName": "PetTrace",
  "sourceName": "contracts/PetTrace.sol",
  "abi": [
    {
      "anonymous": false,
      "inputs": [
        {
          "indexed": true,
          "internalType": "uint256",
          "name": "petId",
          "type": "uint256"
        },
        {
          "indexed": true,
          "internalType": "address",
          "name": "finder",
          "type": "address"
        },
        {
          "indexed": false,
          "internalType": "uint256",
          "name": "ethAmount",
          "type": "uint256"
        },
        {
          "indexed": false,
          "internalType": "uint256",
          "name": "usdcAmount",
          "type": "uint256"
        }
      ],
      "name": "BountyClaimed",
      "type": "event"
    },
    {
      "anonymous": false,
      "inputs": [
        {
          "indexed": true,
          "internalType": "uint256",
          "name": "petId",
          "type": "uint256"
        },
        {
          "indexed": true,
          "internalType": "address",
          "name": "owner",
          "type": "address"
        },
        {
          "indexed": false,
          "internalType": "uint256",
          "name": "ethAmount",
          "type": "uint256"
        },
        {
          "indexed": false,
          "internalType": "uint256",
          "name": "usdcAmount",
          "type": "uint256"
        }
      ],
      "name": "BountyRefunded",
      "type": "event"
    },
    {
      "anonymous": false,
      "inputs": [
        {
          "indexed": true,
          "internalType": "uint256",
          "name": "petId",
          "type": "uint256"
        },
        {
          "indexed": true,
          "internalType": "address",
          "name": "confirmer",
          "type": "address"
        },
        {
          "indexed": false,
          "internalType": "bool",
          "name": "isOwner",
          "type": "bool"
        }
      ],
      "name": "ConfirmationAdded",
      "type": "event"
    },
    {
      "anonymous": false,
      "inputs": [
        {
          "indexed": true,
          "internalType": "uint256",
          "name": "petId",
          "type": "uint256"
        },
        {
          "indexed": true,
          "internalType": "address",
          "name": "finder",
          "type": "address"
        }
      ],
      "name": "PetFound",
      "type": "event"
    },
    {
      "anonymous": false,
      "inputs": [
        {
          "indexed": true,
          "internalType": "uint256",
          "name": "petId",
          "type": "uint256"
        },
        {
          "indexed": true,
          "internalType": "address",
          "name": "owner",
          "type": "address"
        }
      ],
      "name": "PetPosted",
      "type": "event"
    },
    {
      "inputs": [],
      "name": "USDC_ADDRESS",
      "outputs": [
        {
          "internalType": "address",
          "name": "",
          "type": "address"
        }
      ],
      "stateMutability": "view",
      "type": "function"
    },
    {
      "inputs": [
        {
          "internalType": "uint256",
          "name": "petId",
          "type": "uint256"
        }
      ],
      "name": "cancelAndRefund",
      "outputs": [],
      "stateMutability": "nonpayable",
      "type": "function"
    },
    {
      "inputs": [
        {
          "internalType": "uint256",
          "name": "petId",
          "type": "uint256"
        }
      ],
      "name": "claimBounty",
      "outputs": [],
      "stateMutability": "nonpayable",
      "type": "function"
    },
    {
      "inputs": [
        {
          "internalType": "uint256",
          "name": "petId",
          "type": "uint256"
        }
      ],
      "name": "confirmFoundByOwner",
      "outputs": [],
      "stateMutability": "nonpayable",
      "type": "function"
    },
    {
      "inputs": [
        {
          "internalType": "uint256",
          "name": "",
          "type": "uint256"
        }
      ],
      "name": "escrowedUSDC",
      "outputs": [
        {
          "internalType": "uint256",
          "name": "",
          "type": "uint256"
        }
      ],
      "stateMutability": "view",
      "type": "function"
    },
    {
      "inputs": [],
      "name": "getAllLostPets",
      "outputs": [
        {
          "internalType": "uint256[]",
          "name": "",
          "type": "uint256[]"
        },
        {
          "components": [
            {
              "internalType": "uint256",
              "name": "id",
              "type": "uint256"
            },
            {
              "internalType": "address payable",
              "name": "owner",
              "type": "address"
            },
            {
              "internalType": "string",
              "name": "name",
              "type": "string"
            },
            {
              "internalType": "string",
              "name": "breed",
              "type": "string"
            },
            {
              "internalType": "string",
              "name": "gender",
              "type": "string"
            },
            {
              "internalType": "uint256",
              "name": "sizeCm",
              "type": "uint256"
            },
            {
              "internalType": "uint256",
              "name": "ageMonths",
              "type": "uint256"
            },
            {
              "internalType": "string",
              "name": "dateTimeLost",
              "type": "string"
            },
            {
              "internalType": "string",
              "name": "description",
              "type": "string"
            },
            {
              "internalType": "string",
              "name": "imageUrl",
              "type": "string"
            },
            {
              "internalType": "string",
              "name": "lastSeenLocation",
              "type": "string"
            },
            {
              "internalType": "string",
              "name": "contactName",
              "type": "string"
            },
            {
              "internalType": "string",
              "name": "contactPhone",
              "type": "string"
            },
            {
              "internalType": "string",
              "name": "contactEmail",
              "type": "string"
            },
            {
              "internalType": "uint256",
              "name": "ethBounty",
              "type": "uint256"
            },
            {
              "internalType": "uint256",
              "name": "usdcBounty",
              "type": "uint256"
            },
            {
              "internalType": "bool",
              "name": "isFound",
              "type": "bool"
            },
            {
              "internalType": "bool",
              "name": "ownerConfirmed",
              "type": "bool"
            },
            {
              "internalType": "bool",
              "name": "finderConfirmed",
              "type": "bool"
            },
            {
              "internalType": "address",
              "name": "finder",
              "type": "address"
            }
          ],
          "internalType": "struct PetTrace.Pet[]",
          "name": "",
          "type": "tuple[]"
        }
      ],
      "stateMutability": "view",
      "type": "function"
    },
    {
      "inputs": [],
      "name": "getContractUSDCBalance",
      "outputs": [
        {
          "internalType": "uint256",
          "name": "",
          "type": "uint256"
        }
      ],
      "stateMutability": "view",
      "type": "function"
    },
    {
      "inputs": [
        {
          "internalType": "uint256",
          "name": "petId",
          "type": "uint256"
        }
      ],
      "name": "getEscrowedUSDCBalance",
      "outputs": [
        {
          "internalType": "uint256",
          "name": "",
          "type": "uint256"
        }
      ],
      "stateMutability": "view",
      "type": "function"
    },
    {
      "inputs": [],
      "name": "getLostPetsCount",
      "outputs": [
        {
          "internalType": "uint256",
          "name": "",
          "type": "uint256"
        }
      ],
      "stateMutability": "view",
      "type": "function"
    },
    {
      "inputs": [
        {
          "internalType": "uint256",
          "name": "petId",
          "type": "uint256"
        }
      ],
      "name": "getPetDetails",
      "outputs": [
        {
          "internalType": "uint256",
          "name": "id",
          "type": "uint256"
        },
        {
          "internalType": "address",
          "name": "owner",
          "type": "address"
        },
        {
          "internalType": "string",
          "name": "name",
          "type": "string"
        },
        {
          "internalType": "string",
          "name": "breed",
          "type": "string"
        },
        {
          "internalType": "string",
          "name": "gender",
          "type": "string"
        },
        {
          "internalType": "uint256",
          "name": "sizeCm",
          "type": "uint256"
        },
        {
          "internalType": "uint256",
          "name": "ageMonths",
          "type": "uint256"
        },
        {
          "internalType": "string",
          "name": "dateTimeLost",
          "type": "string"
        },
        {
          "internalType": "string",
          "name": "description",
          "type": "string"
        },
        {
          "internalType": "string",
          "name": "imageUrl",
          "type": "string"
        },
        {
          "internalType": "string",
          "name": "lastSeenLocation",
          "type": "string"
        },
        {
          "internalType": "string",
          "name": "contactName",
          "type": "string"
        },
        {
          "internalType": "string",
          "name": "contactPhone",
          "type": "string"
        },
        {
          "internalType": "string",
          "name": "contactEmail",
          "type": "string"
        },
        {
          "internalType": "uint256",
          "name": "ethBounty",
          "type": "uint256"
        },
        {
          "internalType": "uint256",
          "name": "usdcBounty",
          "type": "uint256"
        },
        {
          "internalType": "bool",
          "name": "isFound",
          "type": "bool"
        },
        {
          "internalType": "bool",
          "name": "ownerConfirmed",
          "type": "bool"
        },
        {
          "internalType": "bool",
          "name": "finderConfirmed",
          "type": "bool"
        },
        {
          "internalType": "address",
          "name": "finder",
          "type": "address"
        },
        {
          "internalType": "uint256",
          "name": "escrowedUSDCAmount",
          "type": "uint256"
        }
      ],
      "stateMutability": "view",
      "type": "function"
    },
    {
      "inputs": [
        {
          "internalType": "uint256",
          "name": "petId",
          "type": "uint256"
        }
      ],
      "name": "markAsFound",
      "outputs": [],
      "stateMutability": "nonpayable",
      "type": "function"
    },
    {
      "inputs": [],
      "name": "nextPetId",
      "outputs": [
        {
          "internalType": "uint256",
          "name": "",
          "type": "uint256"
        }
      ],
      "stateMutability": "view",
      "type": "function"
    },
    {
      "inputs": [
        {
          "internalType": "uint256",
          "name": "",
          "type": "uint256"
        }
      ],
      "name": "pets",
      "outputs": [
        {
          "internalType": "uint256",
          "name": "id",
          "type": "uint256"
        },
        {
          "internalType": "address payable",
          "name": "owner",
          "type": "address"
        },
        {
          "internalType": "string",
          "name": "name",
          "type": "string"
        },
        {
          "internalType": "string",
          "name": "breed",
          "type": "string"
        },
        {
          "internalType": "string",
          "name": "gender",
          "type": "string"
        },
        {
          "internalType": "uint256",
          "name": "sizeCm",
          "type": "uint256"
        },
        {
          "internalType": "uint256",
          "name": "ageMonths",
          "type": "uint256"
        },
        {
          "internalType": "string",
          "name": "dateTimeLost",
          "type": "string"
        },
        {
          "internalType": "string",
          "name": "description",
          "type": "string"
        },
        {
          "internalType": "string",
          "name": "imageUrl",
          "type": "string"
        },
        {
          "internalType": "string",
          "name": "lastSeenLocation",
          "type": "string"
        },
        {
          "internalType": "string",
          "name": "contactName",
          "type": "string"
        },
        {
          "internalType": "string",
          "name": "contactPhone",
          "type": "string"
        },
        {
          "internalType": "string",
          "name": "contactEmail",
          "type": "string"
        },
        {
          "internalType": "uint256",
          "name": "ethBounty",
          "type": "uint256"
        },
        {
          "internalType": "uint256",
          "name": "usdcBounty",
          "type": "uint256"
        },
        {
          "internalType": "bool",
          "name": "isFound",
          "type": "bool"
        },
        {
          "internalType": "bool",
          "name": "ownerConfirmed",
          "type": "bool"
        },
        {
          "internalType": "bool",
          "name": "finderConfirmed",
          "type": "bool"
        },
        {
          "internalType": "address",
          "name": "finder",
          "type": "address"
        }
      ],
      "stateMutability": "view",
      "type": "function"
    },
    {
      "inputs": [
        {
          "internalType": "string",
          "name": "name",
          "type": "string"
        },
        {
          "internalType": "string",
          "name": "breed",
          "type": "string"
        },
        {
          "internalType": "string",
          "name": "gender",
          "type": "string"
        },
        {
          "internalType": "uint256",
          "name": "sizeCm",
          "type": "uint256"
        },
        {
          "internalType": "uint256",
          "name": "ageMonths",
          "type": "uint256"
        },
        {
          "internalType": "string",
          "name": "dateTimeLost",
          "type": "string"
        },
        {
          "internalType": "string",
          "name": "description",
          "type": "string"
        },
        {
          "internalType": "string",
          "name": "imageUrl",
          "type": "string"
        },
        {
          "internalType": "string",
          "name": "lastSeenLocation",
          "type": "string"
        },
        {
          "internalType": "string",
          "name": "contactName",
          "type": "string"
        },
        {
          "internalType": "string",
          "name": "contactPhone",
          "type": "string"
        },
        {
          "internalType": "string",
          "name": "contactEmail",
          "type": "string"
        },
        {
          "internalType": "uint256",
          "name": "usdcBounty",
          "type": "uint256"
        }
      ],
      "name": "postLostPet",
      "outputs": [],
      "stateMutability": "payable",
      "type": "function"
    }
  ],
  "bytecode": "0x60808060405234601557612780908161001b8239f35b600080fdfe6102e080604052600436101561001457600080fd5b60003560e01c9081622772c2146123f657508063403f8cc7146123d857806343dc70a7146112e857806344021ad71461108d57806352f2e870146109e1578063543df5a314610b6c5780635e23985b14610a0d5780638ad50ff7146109e15780638b504c1714610981578063b3035b6414610846578063bb09d9b714610817578063cfb869bf146105b3578063d32bfb6c146103555763d89fd4b4146100b957600080fd5b346103505760203660031901126103505760043560005481106100db90612709565b8060005260016020526040600020908154600160a01b600190036001840154166101c0526005830154926006810154600e82015461018052600f820154946010830154946000526002602052604060002054610160526002830161013e90612565565b6101e05261014e60038401612565565b9161015b60048501612565565b9161016860078601612565565b61017460088701612565565b9161018160098801612565565b9361018e600a8901612565565b9561019b600b8a01612565565b976101a8600c8b01612565565b99600d016101b590612565565b9a6040516101a0526101a051526101c0516101a051602001526101a0516040016102a090526101a0516102a0016101e051906101f0916124ad565b6101a05181036101a05160600152610207916124ad565b6101a05181036101a0516080015261021e916124ad565b916101a05160a001526101a05160c001526101a05181036101a05160e00152610246916124ad565b6101a05181036101a051610100015261025e916124ad565b6101a05181036101a0516101200152610276916124ad565b6101a05181036101a051610140015261028e916124ad565b6101a05181036101a05161016001526102a6916124ad565b6101a05181036101a05161018001526102be916124ad565b6101a05181036101a0516101a001526102d6916124ad565b91610180516101a0516101c001526101a0516101e0015260ff811615156101a05161020001528060081c60ff1615156101a05161022001528060101c60ff1615156101a0516102400152600160a01b600190039060181c166101a0516102600152610160516101a05161028001526101a05190036101a051f35b600080fd5b346103505760203660031901126103505760043580600052600160205260406000209060018060a01b03600183015416330361057657601082015460ff811661053d5760181c6001600160a01b03166104f857600e82016000600f825494018181549355558160005260026020526000604081205582801580156104d1575b50508061040f575b60405192835260208301527f86cb66faabc06bafd75e6b3e987a6e463a3d8ec871056b659e5e7b566d92ad5460403393a3005b60405163a9059cbb60e01b815233600482015260248101829052602081604481600073036cbd53842c5426634e7929541ec2318f3dcf7e5af19081156104c557600091610496575b506103dc5760405162461bcd60e51b81526020600482015260126024820152711554d110c81c99599d5b990819985a5b195960721b6044820152606490fd5b6104b8915060203d6020116104be575b6104b08183612544565b810190612609565b84610457565b503d6104a6565b6040513d6000823e3d90fd5b6000906104ef575b600080809381933390f1156104c55782846103d4565b506108fc6104d9565b60405162461bcd60e51b815260206004820152601760248201527f46696e64657220616c72656164792061737369676e65640000000000000000006044820152606490fd5b60405162461bcd60e51b815260206004820152601160248201527014195d08185b1c9958591e48199bdd5b99607a1b6044820152606490fd5b60405162461bcd60e51b815260206004820152601560248201527413db9b1e481bdddb995c8818d85b8818d85b98d95b605a1b6044820152606490fd5b3461035057602036600319011261035057600435600052600160205260406000208054600160a01b6001900360018301541661026052600282016105f690612565565b6102a05261060660038301612565565b61061260048401612565565b600584015460068501549061062960078701612565565b61063560088801612565565b61064160098901612565565b9161064e600a8a01612565565b9361065b600b8b01612565565b95610668600c8c01612565565b97610675600d8d01612565565b99600e8d015461024052600f8d01549c601001549b60405161028052610280515261026051610280516020015261028051604001610280905261028051610280016102a051906106c4916124ad565b61028051810361028051606001526106db916124ad565b61028051810361028051608001526106f2916124ad565b916102805160a001526102805160c001526102805181036102805160e0015261071a916124ad565b610280518103610280516101000152610732916124ad565b61028051810361028051610120015261074a916124ad565b610280518103610280516101400152610762916124ad565b61028051810361028051610160015261077a916124ad565b610280518103610280516101800152610792916124ad565b610280518103610280516101a001526107aa916124ad565b9161024051610280516101c00152610280516101e0015260ff811615156102805161020001528060081c60ff1615156102805161022001528060101c60ff161515610280516102400152600160a01b600190039060181c1661028051610260015261028051900361028051f35b3461035057600036600319011261035057602060405173036cbd53842c5426634e7929541ec2318f3dcf7e8152f35b34610350576020366003190112610350576004358060005260016020526040600020601081019061087b60ff835416156126cd565b600101546001600160a01b0316610893811515612709565b33146109435780546301000000600160b81b0319163360181b6301000000600160b81b0316178155805462ff0000198116620100001780835560081c60ff16610908575b8260405190600082527fc7db73a2d1dc7fd351b6549efad129bbf568e618dbbe683abfa0d1550a96e5ae60203393a3005b62ff00ff19166201000117905533817f2c54217aed12a18c71e20e5a6a3f13f8cfddbb2c3a0a5f409861478c7fd39e81600080a381806108d7565b60405162461bcd60e51b815260206004820152601660248201527527bbb732b91031b0b73737ba103132903334b73232b960511b6044820152606490fd5b346103505760003660031901126103505760008054815b8181106109aa57602083604051908152f35b80600052600160205260ff60106040600020015416156109cd575b600101610998565b916109d9600191612667565b9290506109c5565b346103505760203660031901126103505760043560005260026020526020604060002054604051908152f35b346103505760203660031901126103505760043580600052600160205260406000206010810190815490610a4460ff8316156126cd565b600101546001600160a01b03163303610b2e57601881901c6001600160a01b031615610af95761ff001981166101001780835560101c60ff16610ab3575b8260405190600182527fc7db73a2d1dc7fd351b6549efad129bbf568e618dbbe683abfa0d1550a96e5ae60203393a3005b61ffff1916610101179081905560181c6001600160a01b0316817f2c54217aed12a18c71e20e5a6a3f13f8cfddbb2c3a0a5f409861478c7fd39e81600080a38180610a82565b60405162461bcd60e51b815260206004820152600d60248201526c139bc8199a5b99195c881e595d609a1b6044820152606490fd5b60405162461bcd60e51b81526020600482015260166024820152754f6e6c79206f776e65722063616e20636f6e6669726d60501b6044820152606490fd5b34610350576000366003190112610350576000808054915b8281106110565750610b958161268c565b90610ba36040519283612544565b808252610baf8161268c565b602083019390601f1901368537610bc58261268c565b91610bd36040519384612544565b808352610be2601f199161268c565b0160005b818110610fa85750506000805b828110610e0857505050604051916040830190604084525180915260608301939060005b818110610df257505050818303602083015280519283815260208101906020808660051b8301019301916000915b868310610c525785850386f35b90919293601f1982820301835284519081518152600160a01b60019003602083015116602082015260408201516040820161028090526102808201610c96916124ad565b6060830151908281036060840152610cad916124ad565b6080830151908281036080840152610cc4916124ad565b60a083015160a083015260c083015160c083015260e08301519082810360e0840152610cef916124ad565b61010083015190828103610100840152610d08916124ad565b61012083015190828103610120840152610d21916124ad565b61014083015190828103610140840152610d3a916124ad565b61016083015190828103610160840152610d53916124ad565b61018083015190828103610180840152610d6c916124ad565b6101a0830151908281036101a0840152610d85916124ad565b916101c08101516101c08301526101e08101516101e0830152610200810151151561020083015261022081015115156102208301526102408101511515610240830152600160a01b6001900390610260015116906102600152936020019160200192600101919290610c45565b8251865260209586019590920191600101610c17565b80600052600160205260ff6010604060002001541615610e2b575b600101610bf3565b90610fa08183610e3d600194896126a3565b5283600052826020526040600020601060405191610e5a83612528565b80548352858060a01b0386820154166020840152610e7a60028201612565565b6040840152610e8b60038201612565565b6060840152610e9c60048201612565565b6080840152600581015460a0840152600681015460c0840152610ec160078201612565565b60e0840152610ed260088201612565565b610100840152610ee460098201612565565b610120840152610ef6600a8201612565565b610140840152610f08600b8201612565565b610160840152610f1a600c8201612565565b610180840152610f2c600d8201612565565b6101a0840152600e8101546101c0840152600f8101546101e0840152015460ff8116151561020083015260ff8160081c16151561022083015260ff8160101c161515610240830152848060a01b039060181c16610260820152610f8f82886126a3565b52610f9a81876126a3565b50612667565b919050610e23565b602090604051610fb781612528565b600081526000838201526060604082015260608082015260606080820152600060a0820152600060c0820152606060e08201526060610100820152606061012082015260606101408201526060610160820152606061018082015260606101a082015260006101c082015260006101e0820152600061020082015260006102208201526000610240820152600061026082015282828701015201610be6565b80600052600160205260ff6010604060002001541615611079575b600101610b84565b90611085600191612667565b919050611071565b3461035057602036600319011261035057600435806000526001602052604060002090601082015460ff8116156112905760181c6001600160a01b0316330361125a57600e820180549283158015808261124d575b15611213576000600f879401818154965555846000526002602052600060408120556111ec575b505080611144575b60405192835260208301527f2eefa727cced3362efe12827696bbd9df4926abce3c569ddaf6b9634ae1af14760403393a3005b60405163a9059cbb60e01b815233600482015260248101829052602081604481600073036cbd53842c5426634e7929541ec2318f3dcf7e5af19081156104c5576000916111cd575b506111115760405162461bcd60e51b81526020600482015260146024820152731554d110c81d1c985b9cd9995c8819985a5b195960621b6044820152606490fd5b6111e6915060203d6020116104be576104b08183612544565b8461118c565b60009061120a575b600080809381933390f1156104c5578284611109565b506108fc6111f4565b60405162461bcd60e51b81526020600482015260126024820152714e6f20626f756e747920746f20636c61696d60701b6044820152606490fd5b50600f83015415156110e2565b60405162461bcd60e51b815260206004820152600e60248201526d2737ba103a3432903334b73232b960911b6044820152606490fd5b60405162461bcd60e51b815260206004820152602a60248201527f506574206e6f7420636f6e6669726d656420617320666f756e6420627920626f6044820152697468207061727469657360b01b6064820152608490fd5b6101a0366003190112610350576004356001600160401b03811161035057611314903690600401612480565b6102c0526024356001600160401b03811161035057611337903690600401612480565b61014052610220526044356001600160401b0381116103505761135e903690600401612480565b919060a4356001600160401b0381116103505761137f903690600401612480565b9060c4356001600160401b0381116103505761139f903690600401612480565b60e4356001600160401b038111610350576113be903690600401612480565b939094610104356001600160401b038111610350576113e1903690600401612480565b979099610124356001600160401b03811161035057611404903690600401612480565b9060805299610144356001600160401b03811161035057611429903690600401612480565b60c05260e052610164356001600160401b0381116103505761144f903690600401612480565b610200526101205234158015906123cc575b1561237c576102c051156123435789156122fe57610184356121f4575b611545999794611527946114f861153699956115579f9c99956114d2611519966000546101005260405160a0526114b660a051612528565b6101005160a0515233602060a051015236906102c05190612621565b604060a05101526114ea366101405161022051612621565b606060a05101523691612621565b608060a051015260643560a08051015260843560c060a05101523691612621565b60e060a05101523691612621565b61010060a05101523691612621565b61012060a05101523691612621565b61014060a05101523690608051612621565b61016060a051015261156e3660c05160e051612621565b61018060a0510152611587366102005161012051612621565b6101a060a0510152346101c060a0510152610184356101e060a0510152600061020060a0510152600061022060a0510152600061024060a0510152600061026060a0510152610100516000526001602052604060002060a0515181556001810160018060a01b03602060a0510151166bffffffffffffffffffffffff60a01b8254161790556002810190604060a05101519182516001600160401b038111611b665761163382546124ee565b601f81116121ac575b506020601f8211600114612147578192939460009261213c575b50508160011b916000199060031b1c19161790555b6003810190606060a05101519182516001600160401b038111611b665761169282546124ee565b601f81116120f4575b506020601f821160011461208f5781929394600092612084575b50508160011b916000199060031b1c19161790555b6004810190608060a05101519182516001600160401b038111611b66576116f182546124ee565b601f811161203c575b506020601f8211600114611fd75781929394600092611fcc575b50508160011b916000199060031b1c19161790555b60a080510151600582015560c060a05101516006820155600781019060e060a05101519182516001600160401b038111611b665761176782546124ee565b601f8111611f84575b506020601f8211600114611f1f5781929394600092611f14575b50508160011b916000199060031b1c19161790555b600881019061010060a05101519182516001600160401b038111611b66576117c782546124ee565b601f8111611ecc575b506020601f8211600114611e675781929394600092611e5c575b50508160011b916000199060031b1c19161790555b600981019061012060a05101519182516001600160401b038111611b665761182782546124ee565b601f8111611e14575b506020601f8211600114611daf5781929394600092611da4575b50508160011b916000199060031b1c19161790555b600a81019061014060a05101519182516001600160401b038111611b665761188782546124ee565b601f8111611d5c575b506020601f8211600114611cf75781929394600092611cec575b50508160011b916000199060031b1c19161790555b600b81019061016060a05101519182516001600160401b038111611b66576118e782546124ee565b601f8111611ca4575b506020601f8211600114611c3f5781929394600092611c34575b50508160011b916000199060031b1c19161790555b600c81019061018060a05101519182516001600160401b038111611b665761194782546124ee565b601f8111611bec575b506020601f8211600114611b875781929394600092611b7c575b50508160011b916000199060031b1c19161790555b600d81016101a060a05101518051906001600160401b038211611b66576119a683546124ee565b601f8111611b1e575b50602090601f8311600114611ab057918060109492611a6e9694600092611aa5575b50508160011b916000199060031b1c19161790555b60a0516101c0810151600e8301556101e0810151600f830155610200810151929091018054610220830151610240840151610260909401516001600160b81b031990921660ff951515959095169490941793151560081b61ff00169390931791151560101b62ff0000169190911760189290921b6301000000600160b81b0316919091179055565b611aa060005433817ff6be169e9242db299e4065f846c02e09b60f1421201248fe94d6f552e8c8bd44600080a3612667565b600055005b0151905086806119d1565b90601f1983169184600052816000209260005b818110611b065750926001928592611a6e98966010989610611aed575b505050811b0190556119e6565b015160001960f88460031b161c19169055868080611ae0565b92936020600181928786015181550195019301611ac3565b836000526020600020601f840160051c81019160208510611b5c575b601f0160051c01905b818110611b5057506119af565b60008155600101611b43565b9091508190611b3a565b634e487b7160e01b600052604160045260246000fd5b01519050848061196a565b601f1982169083600052806000209160005b818110611bd457509583600195969710611bbb575b505050811b01905561197f565b015160001960f88460031b161c19169055848080611bae565b9192602060018192868b015181550194019201611b99565b826000526020600020601f830160051c81019160208410611c2a575b601f0160051c01905b818110611c1e5750611950565b60008155600101611c11565b9091508190611c08565b01519050848061190a565b601f1982169083600052806000209160005b818110611c8c57509583600195969710611c73575b505050811b01905561191f565b015160001960f88460031b161c19169055848080611c66565b9192602060018192868b015181550194019201611c51565b826000526020600020601f830160051c81019160208410611ce2575b601f0160051c01905b818110611cd657506118f0565b60008155600101611cc9565b9091508190611cc0565b0151905084806118aa565b601f1982169083600052806000209160005b818110611d4457509583600195969710611d2b575b505050811b0190556118bf565b015160001960f88460031b161c19169055848080611d1e565b9192602060018192868b015181550194019201611d09565b826000526020600020601f830160051c81019160208410611d9a575b601f0160051c01905b818110611d8e5750611890565b60008155600101611d81565b9091508190611d78565b01519050848061184a565b601f1982169083600052806000209160005b818110611dfc57509583600195969710611de3575b505050811b01905561185f565b015160001960f88460031b161c19169055848080611dd6565b9192602060018192868b015181550194019201611dc1565b826000526020600020601f830160051c81019160208410611e52575b601f0160051c01905b818110611e465750611830565b60008155600101611e39565b9091508190611e30565b0151905084806117ea565b601f1982169083600052806000209160005b818110611eb457509583600195969710611e9b575b505050811b0190556117ff565b015160001960f88460031b161c19169055848080611e8e565b9192602060018192868b015181550194019201611e79565b826000526020600020601f830160051c81019160208410611f0a575b601f0160051c01905b818110611efe57506117d0565b60008155600101611ef1565b9091508190611ee8565b01519050848061178a565b601f1982169083600052806000209160005b818110611f6c57509583600195969710611f53575b505050811b01905561179f565b015160001960f88460031b161c19169055848080611f46565b9192602060018192868b015181550194019201611f31565b826000526020600020601f830160051c81019160208410611fc2575b601f0160051c01905b818110611fb65750611770565b60008155600101611fa9565b9091508190611fa0565b015190508480611714565b601f1982169083600052806000209160005b8181106120245750958360019596971061200b575b505050811b019055611729565b015160001960f88460031b161c19169055848080611ffe565b9192602060018192868b015181550194019201611fe9565b826000526020600020601f830160051c8101916020841061207a575b601f0160051c01905b81811061206e57506116fa565b60008155600101612061565b9091508190612058565b0151905084806116b5565b601f1982169083600052806000209160005b8181106120dc575095836001959697106120c3575b505050811b0190556116ca565b015160001960f88460031b161c191690558480806120b6565b9192602060018192868b0151815501940192016120a1565b826000526020600020601f830160051c81019160208410612132575b601f0160051c01905b818110612126575061169b565b60008155600101612119565b9091508190612110565b015190508480611656565b601f1982169083600052806000209160005b8181106121945750958360019596971061217b575b505050811b01905561166b565b015160001960f88460031b161c1916905584808061216e565b9192602060018192868b015181550194019201612159565b826000526020600020601f830160051c810191602084106121ea575b601f0160051c01905b8181106121de575061163c565b600081556001016121d1565b90915081906121c8565b9591929896939a9794906040516323b872dd60e01b8152336004820152306024820152610184356044820152602081606481600073036cbd53842c5426634e7929541ec2318f3dcf7e5af19081156104c5576000916122df575b501561228057600080548152600260205260409020610184359055979a9698949793969195909491939192919061147e565b60405162461bcd60e51b815260206004820152603160248201527f55534443207472616e73666572206661696c65642e20436865636b206170707260448201527037bb30b61030b732103130b630b731b29760791b6064820152608490fd5b6122f8915060203d6020116104be576104b08183612544565b8d61224e565b60405162461bcd60e51b815260206004820152601b60248201527f4c617374207365656e206c6f636174696f6e20726571756972656400000000006044820152606490fd5b60405162461bcd60e51b815260206004820152601160248201527014195d081b985b59481c995c5d5a5c9959607a1b6044820152606490fd5b60405162461bcd60e51b815260206004820152602260248201527f45697468657220455448206f72205553444320626f756e747920726571756972604482015261195960f21b6064820152608490fd5b50610184351515611461565b34610350576000366003190112610350576020600054604051908152f35b34610350576000366003190112610350576370a0823160e01b815230600482015260208160248173036cbd53842c5426634e7929541ec2318f3dcf7e5afa80156104c55760009061244d575b602090604051908152f35b506020813d602011612478575b8161246760209383612544565b810103126103505760209051612442565b3d915061245a565b9181601f84011215610350578235916001600160401b038311610350576020838186019501011161035057565b919082519283825260005b8481106124d9575050826000602080949584010152601f8019910116010190565b806020809284010151828286010152016124b8565b90600182811c9216801561251e575b602083101461250857565b634e487b7160e01b600052602260045260246000fd5b91607f16916124fd565b61028081019081106001600160401b03821117611b6657604052565b90601f801991011681019081106001600160401b03821117611b6657604052565b9060405191826000825492612579846124ee565b80845293600181169081156125e757506001146125a0575b5061259e92500383612544565b565b90506000929192526020600020906000915b8183106125cb57505090602061259e9282010138612591565b60209193508060019154838589010152019101909184926125b2565b90506020925061259e94915060ff191682840152151560051b82010138612591565b90816020910312610350575180151581036103505790565b9291926001600160401b038211611b66576040519161264a601f8201601f191660200184612544565b829481845281830111610350578281602093846000960137010152565b60001981146126765760010190565b634e487b7160e01b600052601160045260246000fd5b6001600160401b038111611b665760051b60200190565b80518210156126b75760209160051b010190565b634e487b7160e01b600052603260045260246000fd5b156126d457565b60405162461bcd60e51b815260206004820152600d60248201526c105b1c9958591e48199bdd5b99609a1b6044820152606490fd5b1561271057565b60405162461bcd60e51b815260206004820152601260248201527114195d08191bd95cc81b9bdd08195e1a5cdd60721b6044820152606490fdfea264697066735822122063d898be3628fa8027d93bfffcf9b4a402eb090e63f62d1db90f821252db5f3964736f6c634300081c0033",
  "linkReferences": {},
  "deployedLinkReferences": {}
}