{
  "contracts/PetTrace.sol": {
    "PetTrace": {
      "abi": [
        {
          "anonymous": false,
          "inputs": [
            {
              "indexed": true,
              "internalType": "uint256",
              "name": "petId",
              "type": "uint256"
            },
            {
              "indexed": true,
              "internalType": "address",
              "name": "finder",
              "type": "address"
            },
            {
              "indexed": false,
              "internalType": "uint256",
              "name": "ethAmount",
              "type": "uint256"
            },
            {
              "indexed": false,
              "internalType": "uint256",
              "name": "usdcAmount",
              "type": "uint256"
            }
          ],
          "name": "BountyClaimed",
          "type": "event"
        },
        {
          "anonymous": false,
          "inputs": [
            {
              "indexed": true,
              "internalType": "uint256",
              "name": "petId",
              "type": "uint256"
            },
            {
              "indexed": true,
              "internalType": "address",
              "name": "owner",
              "type": "address"
            },
            {
              "indexed": false,
              "internalType": "uint256",
              "name": "ethAmount",
              "type": "uint256"
            },
            {
              "indexed": false,
              "internalType": "uint256",
              "name": "usdcAmount",
              "type": "uint256"
            }
          ],
          "name": "BountyRefunded",
          "type": "event"
        },
        {
          "anonymous": false,
          "inputs": [
            {
              "indexed": true,
              "internalType": "uint256",
              "name": "petId",
              "type": "uint256"
            },
            {
              "indexed": true,
              "internalType": "address",
              "name": "confirmer",
              "type": "address"
            },
            {
              "indexed": false,
              "internalType": "bool",
              "name": "isOwner",
              "type": "bool"
            }
          ],
          "name": "ConfirmationAdded",
          "type": "event"
        },
        {
          "anonymous": false,
          "inputs": [
            {
              "indexed": true,
              "internalType": "uint256",
              "name": "petId",
              "type": "uint256"
            },
            {
              "indexed": true,
              "internalType": "address",
              "name": "finder",
              "type": "address"
            }
          ],
          "name": "PetFound",
          "type": "event"
        },
        {
          "anonymous": false,
          "inputs": [
            {
              "indexed": true,
              "internalType": "uint256",
              "name": "petId",
              "type": "uint256"
            },
            {
              "indexed": true,
              "internalType": "address",
              "name": "owner",
              "type": "address"
            }
          ],
          "name": "PetPosted",
          "type": "event"
        },
        {
          "inputs": [],
          "name": "USDC_ADDRESS",
          "outputs": [
            {
              "internalType": "address",
              "name": "",
              "type": "address"
            }
          ],
          "stateMutability": "view",
          "type": "function"
        },
        {
          "inputs": [
            {
              "internalType": "uint256",
              "name": "petId",
              "type": "uint256"
            }
          ],
          "name": "cancelAndRefund",
          "outputs": [],
          "stateMutability": "nonpayable",
          "type": "function"
        },
        {
          "inputs": [
            {
              "internalType": "uint256",
              "name": "petId",
              "type": "uint256"
            }
          ],
          "name": "claimBounty",
          "outputs": [],
          "stateMutability": "nonpayable",
          "type": "function"
        },
        {
          "inputs": [
            {
              "internalType": "uint256",
              "name": "petId",
              "type": "uint256"
            }
          ],
          "name": "confirmFoundByOwner",
          "outputs": [],
          "stateMutability": "nonpayable",
          "type": "function"
        },
        {
          "inputs": [
            {
              "internalType": "uint256",
              "name": "",
              "type": "uint256"
            }
          ],
          "name": "escrowedUSDC",
          "outputs": [
            {
              "internalType": "uint256",
              "name": "",
              "type": "uint256"
            }
          ],
          "stateMutability": "view",
          "type": "function"
        },
        {
          "inputs": [],
          "name": "getAllLostPets",
          "outputs": [
            {
              "internalType": "uint256[]",
              "name": "",
              "type": "uint256[]"
            },
            {
              "components": [
                {
                  "internalType": "uint256",
                  "name": "id",
                  "type": "uint256"
                },
                {
                  "internalType": "address payable",
                  "name": "owner",
                  "type": "address"
                },
                {
                  "internalType": "string",
                  "name": "name",
                  "type": "string"
                },
                {
                  "internalType": "string",
                  "name": "breed",
                  "type": "string"
                },
                {
                  "internalType": "string",
                  "name": "gender",
                  "type": "string"
                },
                {
                  "internalType": "uint256",
                  "name": "sizeCm",
                  "type": "uint256"
                },
                {
                  "internalType": "uint256",
                  "name": "ageMonths",
                  "type": "uint256"
                },
                {
                  "internalType": "string",
                  "name": "dateTimeLost",
                  "type": "string"
                },
                {
                  "internalType": "string",
                  "name": "description",
                  "type": "string"
                },
                {
                  "internalType": "string",
                  "name": "imageUrl",
                  "type": "string"
                },
                {
                  "internalType": "string",
                  "name": "lastSeenLocation",
                  "type": "string"
                },
                {
                  "internalType": "string",
                  "name": "contactName",
                  "type": "string"
                },
                {
                  "internalType": "string",
                  "name": "contactPhone",
                  "type": "string"
                },
                {
                  "internalType": "string",
                  "name": "contactEmail",
                  "type": "string"
                },
                {
                  "internalType": "uint256",
                  "name": "ethBounty",
                  "type": "uint256"
                },
                {
                  "internalType": "uint256",
                  "name": "usdcBounty",
                  "type": "uint256"
                },
                {
                  "internalType": "bool",
                  "name": "isFound",
                  "type": "bool"
                },
                {
                  "internalType": "bool",
                  "name": "ownerConfirmed",
                  "type": "bool"
                },
                {
                  "internalType": "bool",
                  "name": "finderConfirmed",
                  "type": "bool"
                },
                {
                  "internalType": "address",
                  "name": "finder",
                  "type": "address"
                }
              ],
              "internalType": "struct PetTrace.Pet[]",
              "name": "",
              "type": "tuple[]"
            }
          ],
          "stateMutability": "view",
          "type": "function"
        },
        {
          "inputs": [],
          "name": "getContractUSDCBalance",
          "outputs": [
            {
              "internalType": "uint256",
              "name": "",
              "type": "uint256"
            }
          ],
          "stateMutability": "view",
          "type": "function"
        },
        {
          "inputs": [
            {
              "internalType": "uint256",
              "name": "petId",
              "type": "uint256"
            }
          ],
          "name": "getEscrowedUSDCBalance",
          "outputs": [
            {
              "internalType": "uint256",
              "name": "",
              "type": "uint256"
            }
          ],
          "stateMutability": "view",
          "type": "function"
        },
        {
          "inputs": [],
          "name": "getLostPetsCount",
          "outputs": [
            {
              "internalType": "uint256",
              "name": "",
              "type": "uint256"
            }
          ],
          "stateMutability": "view",
          "type": "function"
        },
        {
          "inputs": [
            {
              "internalType": "uint256",
              "name": "petId",
              "type": "uint256"
            }
          ],
          "name": "getPetDetails",
          "outputs": [
            {
              "internalType": "uint256",
              "name": "id",
              "type": "uint256"
            },
            {
              "internalType": "address",
              "name": "owner",
              "type": "address"
            },
            {
              "internalType": "string",
              "name": "name",
              "type": "string"
            },
            {
              "internalType": "string",
              "name": "breed",
              "type": "string"
            },
            {
              "internalType": "string",
              "name": "gender",
              "type": "string"
            },
            {
              "internalType": "uint256",
              "name": "sizeCm",
              "type": "uint256"
            },
            {
              "internalType": "uint256",
              "name": "ageMonths",
              "type": "uint256"
            },
            {
              "internalType": "string",
              "name": "dateTimeLost",
              "type": "string"
            },
            {
              "internalType": "string",
              "name": "description",
              "type": "string"
            },
            {
              "internalType": "string",
              "name": "imageUrl",
              "type": "string"
            },
            {
              "internalType": "string",
              "name": "lastSeenLocation",
              "type": "string"
            },
            {
              "internalType": "string",
              "name": "contactName",
              "type": "string"
            },
            {
              "internalType": "string",
              "name": "contactPhone",
              "type": "string"
            },
            {
              "internalType": "string",
              "name": "contactEmail",
              "type": "string"
            },
            {
              "internalType": "uint256",
              "name": "ethBounty",
              "type": "uint256"
            },
            {
              "internalType": "uint256",
              "name": "usdcBounty",
              "type": "uint256"
            },
            {
              "internalType": "bool",
              "name": "isFound",
              "type": "bool"
            },
            {
              "internalType": "bool",
              "name": "ownerConfirmed",
              "type": "bool"
            },
            {
              "internalType": "bool",
              "name": "finderConfirmed",
              "type": "bool"
            },
            {
              "internalType": "address",
              "name": "finder",
              "type": "address"
            },
            {
              "internalType": "uint256",
              "name": "escrowedUSDCAmount",
              "type": "uint256"
            }
          ],
          "stateMutability": "view",
          "type": "function"
        },
        {
          "inputs": [
            {
              "internalType": "uint256",
              "name": "petId",
              "type": "uint256"
            }
          ],
          "name": "markAsFound",
          "outputs": [],
          "stateMutability": "nonpayable",
          "type": "function"
        },
        {
          "inputs": [],
          "name": "nextPetId",
          "outputs": [
            {
              "internalType": "uint256",
              "name": "",
              "type": "uint256"
            }
          ],
          "stateMutability": "view",
          "type": "function"
        },
        {
          "inputs": [
            {
              "internalType": "uint256",
              "name": "",
              "type": "uint256"
            }
          ],
          "name": "pets",
          "outputs": [
            {
              "internalType": "uint256",
              "name": "id",
              "type": "uint256"
            },
            {
              "internalType": "address payable",
              "name": "owner",
              "type": "address"
            },
            {
              "internalType": "string",
              "name": "name",
              "type": "string"
            },
            {
              "internalType": "string",
              "name": "breed",
              "type": "string"
            },
            {
              "internalType": "string",
              "name": "gender",
              "type": "string"
            },
            {
              "internalType": "uint256",
              "name": "sizeCm",
              "type": "uint256"
            },
            {
              "internalType": "uint256",
              "name": "ageMonths",
              "type": "uint256"
            },
            {
              "internalType": "string",
              "name": "dateTimeLost",
              "type": "string"
            },
            {
              "internalType": "string",
              "name": "description",
              "type": "string"
            },
            {
              "internalType": "string",
              "name": "imageUrl",
              "type": "string"
            },
            {
              "internalType": "string",
              "name": "lastSeenLocation",
              "type": "string"
            },
            {
              "internalType": "string",
              "name": "contactName",
              "type": "string"
            },
            {
              "internalType": "string",
              "name": "contactPhone",
              "type": "string"
            },
            {
              "internalType": "string",
              "name": "contactEmail",
              "type": "string"
            },
            {
              "internalType": "uint256",
              "name": "ethBounty",
              "type": "uint256"
            },
            {
              "internalType": "uint256",
              "name": "usdcBounty",
              "type": "uint256"
            },
            {
              "internalType": "bool",
              "name": "isFound",
              "type": "bool"
            },
            {
              "internalType": "bool",
              "name": "ownerConfirmed",
              "type": "bool"
            },
            {
              "internalType": "bool",
              "name": "finderConfirmed",
              "type": "bool"
            },
            {
              "internalType": "address",
              "name": "finder",
              "type": "address"
            }
          ],
          "stateMutability": "view",
          "type": "function"
        },
        {
          "inputs": [
            {
              "internalType": "string",
              "name": "name",
              "type": "string"
            },
            {
              "internalType": "string",
              "name": "breed",
              "type": "string"
            },
            {
              "internalType": "string",
              "name": "gender",
              "type": "string"
            },
            {
              "internalType": "uint256",
              "name": "sizeCm",
              "type": "uint256"
            },
            {
              "internalType": "uint256",
              "name": "ageMonths",
              "type": "uint256"
            },
            {
              "internalType": "string",
              "name": "dateTimeLost",
              "type": "string"
            },
            {
              "internalType": "string",
              "name": "description",
              "type": "string"
            },
            {
              "internalType": "string",
              "name": "imageUrl",
              "type": "string"
            },
            {
              "internalType": "string",
              "name": "lastSeenLocation",
              "type": "string"
            },
            {
              "internalType": "string",
              "name": "contactName",
              "type": "string"
            },
            {
              "internalType": "string",
              "name": "contactPhone",
              "type": "string"
            },
            {
              "internalType": "string",
              "name": "contactEmail",
              "type": "string"
            },
            {
              "internalType": "uint256",
              "name": "usdcBounty",
              "type": "uint256"
            }
          ],
          "name": "postLostPet",
          "outputs": [],
          "stateMutability": "payable",
          "type": "function"
        }
      ],
      "evm": {
        "bytecode": {
          "linkReferences": {},
          "object": "60808060405234601557612780908161001b8239f35b600080fdfe6102e080604052600436101561001457600080fd5b60003560e01c9081622772c2146123f657508063403f8cc7146123d857806343dc70a7146112e857806344021ad71461108d57806352f2e870146109e1578063543df5a314610b6c5780635e23985b14610a0d5780638ad50ff7146109e15780638b504c1714610981578063b3035b6414610846578063bb09d9b714610817578063cfb869bf146105b3578063d32bfb6c146103555763d89fd4b4146100b957600080fd5b346103505760203660031901126103505760043560005481106100db90612709565b8060005260016020526040600020908154600160a01b600190036001840154166101c0526005830154926006810154600e82015461018052600f820154946010830154946000526002602052604060002054610160526002830161013e90612565565b6101e05261014e60038401612565565b9161015b60048501612565565b9161016860078601612565565b61017460088701612565565b9161018160098801612565565b9361018e600a8901612565565b9561019b600b8a01612565565b976101a8600c8b01612565565b99600d016101b590612565565b9a6040516101a0526101a051526101c0516101a051602001526101a0516040016102a090526101a0516102a0016101e051906101f0916124ad565b6101a05181036101a05160600152610207916124ad565b6101a05181036101a0516080015261021e916124ad565b916101a05160a001526101a05160c001526101a05181036101a05160e00152610246916124ad565b6101a05181036101a051610100015261025e916124ad565b6101a05181036101a0516101200152610276916124ad565b6101a05181036101a051610140015261028e916124ad565b6101a05181036101a05161016001526102a6916124ad565b6101a05181036101a05161018001526102be916124ad565b6101a05181036101a0516101a001526102d6916124ad565b91610180516101a0516101c001526101a0516101e0015260ff811615156101a05161020001528060081c60ff1615156101a05161022001528060101c60ff1615156101a0516102400152600160a01b600190039060181c166101a0516102600152610160516101a05161028001526101a05190036101a051f35b600080fd5b346103505760203660031901126103505760043580600052600160205260406000209060018060a01b03600183015416330361057657601082015460ff811661053d5760181c6001600160a01b03166104f857600e82016000600f825494018181549355558160005260026020526000604081205582801580156104d1575b50508061040f575b60405192835260208301527f86cb66faabc06bafd75e6b3e987a6e463a3d8ec871056b659e5e7b566d92ad5460403393a3005b60405163a9059cbb60e01b815233600482015260248101829052602081604481600073036cbd53842c5426634e7929541ec2318f3dcf7e5af19081156104c557600091610496575b506103dc5760405162461bcd60e51b81526020600482015260126024820152711554d110c81c99599d5b990819985a5b195960721b6044820152606490fd5b6104b8915060203d6020116104be575b6104b08183612544565b810190612609565b84610457565b503d6104a6565b6040513d6000823e3d90fd5b6000906104ef575b600080809381933390f1156104c55782846103d4565b506108fc6104d9565b60405162461bcd60e51b815260206004820152601760248201527f46696e64657220616c72656164792061737369676e65640000000000000000006044820152606490fd5b60405162461bcd60e51b815260206004820152601160248201527014195d08185b1c9958591e48199bdd5b99607a1b6044820152606490fd5b60405162461bcd60e51b815260206004820152601560248201527413db9b1e481bdddb995c8818d85b8818d85b98d95b605a1b6044820152606490fd5b3461035057602036600319011261035057600435600052600160205260406000208054600160a01b6001900360018301541661026052600282016105f690612565565b6102a05261060660038301612565565b61061260048401612565565b600584015460068501549061062960078701612565565b61063560088801612565565b61064160098901612565565b9161064e600a8a01612565565b9361065b600b8b01612565565b95610668600c8c01612565565b97610675600d8d01612565565b99600e8d015461024052600f8d01549c601001549b60405161028052610280515261026051610280516020015261028051604001610280905261028051610280016102a051906106c4916124ad565b61028051810361028051606001526106db916124ad565b61028051810361028051608001526106f2916124ad565b916102805160a001526102805160c001526102805181036102805160e0015261071a916124ad565b610280518103610280516101000152610732916124ad565b61028051810361028051610120015261074a916124ad565b610280518103610280516101400152610762916124ad565b61028051810361028051610160015261077a916124ad565b610280518103610280516101800152610792916124ad565b610280518103610280516101a001526107aa916124ad565b9161024051610280516101c00152610280516101e0015260ff811615156102805161020001528060081c60ff1615156102805161022001528060101c60ff161515610280516102400152600160a01b600190039060181c1661028051610260015261028051900361028051f35b3461035057600036600319011261035057602060405173036cbd53842c5426634e7929541ec2318f3dcf7e8152f35b34610350576020366003190112610350576004358060005260016020526040600020601081019061087b60ff835416156126cd565b600101546001600160a01b0316610893811515612709565b33146109435780546301000000600160b81b0319163360181b6301000000600160b81b0316178155805462ff0000198116620100001780835560081c60ff16610908575b8260405190600082527fc7db73a2d1dc7fd351b6549efad129bbf568e618dbbe683abfa0d1550a96e5ae60203393a3005b62ff00ff19166201000117905533817f2c54217aed12a18c71e20e5a6a3f13f8cfddbb2c3a0a5f409861478c7fd39e81600080a381806108d7565b60405162461bcd60e51b815260206004820152601660248201527527bbb732b91031b0b73737ba103132903334b73232b960511b6044820152606490fd5b346103505760003660031901126103505760008054815b8181106109aa57602083604051908152f35b80600052600160205260ff60106040600020015416156109cd575b600101610998565b916109d9600191612667565b9290506109c5565b346103505760203660031901126103505760043560005260026020526020604060002054604051908152f35b346103505760203660031901126103505760043580600052600160205260406000206010810190815490610a4460ff8316156126cd565b600101546001600160a01b03163303610b2e57601881901c6001600160a01b031615610af95761ff001981166101001780835560101c60ff16610ab3575b8260405190600182527fc7db73a2d1dc7fd351b6549efad129bbf568e618dbbe683abfa0d1550a96e5ae60203393a3005b61ffff1916610101179081905560181c6001600160a01b0316817f2c54217aed12a18c71e20e5a6a3f13f8cfddbb2c3a0a5f409861478c7fd39e81600080a38180610a82565b60405162461bcd60e51b815260206004820152600d60248201526c139bc8199a5b99195c881e595d609a1b6044820152606490fd5b60405162461bcd60e51b81526020600482015260166024820152754f6e6c79206f776e65722063616e20636f6e6669726d60501b6044820152606490fd5b34610350576000366003190112610350576000808054915b8281106110565750610b958161268c565b90610ba36040519283612544565b808252610baf8161268c565b602083019390601f1901368537610bc58261268c565b91610bd36040519384612544565b808352610be2601f199161268c565b0160005b818110610fa85750506000805b828110610e0857505050604051916040830190604084525180915260608301939060005b818110610df257505050818303602083015280519283815260208101906020808660051b8301019301916000915b868310610c525785850386f35b90919293601f1982820301835284519081518152600160a01b60019003602083015116602082015260408201516040820161028090526102808201610c96916124ad565b6060830151908281036060840152610cad916124ad565b6080830151908281036080840152610cc4916124ad565b60a083015160a083015260c083015160c083015260e08301519082810360e0840152610cef916124ad565b61010083015190828103610100840152610d08916124ad565b61012083015190828103610120840152610d21916124ad565b61014083015190828103610140840152610d3a916124ad565b61016083015190828103610160840152610d53916124ad565b61018083015190828103610180840152610d6c916124ad565b6101a0830151908281036101a0840152610d85916124ad565b916101c08101516101c08301526101e08101516101e0830152610200810151151561020083015261022081015115156102208301526102408101511515610240830152600160a01b6001900390610260015116906102600152936020019160200192600101919290610c45565b8251865260209586019590920191600101610c17565b80600052600160205260ff6010604060002001541615610e2b575b600101610bf3565b90610fa08183610e3d600194896126a3565b5283600052826020526040600020601060405191610e5a83612528565b80548352858060a01b0386820154166020840152610e7a60028201612565565b6040840152610e8b60038201612565565b6060840152610e9c60048201612565565b6080840152600581015460a0840152600681015460c0840152610ec160078201612565565b60e0840152610ed260088201612565565b610100840152610ee460098201612565565b610120840152610ef6600a8201612565565b610140840152610f08600b8201612565565b610160840152610f1a600c8201612565565b610180840152610f2c600d8201612565565b6101a0840152600e8101546101c0840152600f8101546101e0840152015460ff8116151561020083015260ff8160081c16151561022083015260ff8160101c161515610240830152848060a01b039060181c16610260820152610f8f82886126a3565b52610f9a81876126a3565b50612667565b919050610e23565b602090604051610fb781612528565b600081526000838201526060604082015260608082015260606080820152600060a0820152600060c0820152606060e08201526060610100820152606061012082015260606101408201526060610160820152606061018082015260606101a082015260006101c082015260006101e0820152600061020082015260006102208201526000610240820152600061026082015282828701015201610be6565b80600052600160205260ff6010604060002001541615611079575b600101610b84565b90611085600191612667565b919050611071565b3461035057602036600319011261035057600435806000526001602052604060002090601082015460ff8116156112905760181c6001600160a01b0316330361125a57600e820180549283158015808261124d575b15611213576000600f879401818154965555846000526002602052600060408120556111ec575b505080611144575b60405192835260208301527f2eefa727cced3362efe12827696bbd9df4926abce3c569ddaf6b9634ae1af14760403393a3005b60405163a9059cbb60e01b815233600482015260248101829052602081604481600073036cbd53842c5426634e7929541ec2318f3dcf7e5af19081156104c5576000916111cd575b506111115760405162461bcd60e51b81526020600482015260146024820152731554d110c81d1c985b9cd9995c8819985a5b195960621b6044820152606490fd5b6111e6915060203d6020116104be576104b08183612544565b8461118c565b60009061120a575b600080809381933390f1156104c5578284611109565b506108fc6111f4565b60405162461bcd60e51b81526020600482015260126024820152714e6f20626f756e747920746f20636c61696d60701b6044820152606490fd5b50600f83015415156110e2565b60405162461bcd60e51b815260206004820152600e60248201526d2737ba103a3432903334b73232b960911b6044820152606490fd5b60405162461bcd60e51b815260206004820152602a60248201527f506574206e6f7420636f6e6669726d656420617320666f756e6420627920626f6044820152697468207061727469657360b01b6064820152608490fd5b6101a0366003190112610350576004356001600160401b03811161035057611314903690600401612480565b6102c0526024356001600160401b03811161035057611337903690600401612480565b61014052610220526044356001600160401b0381116103505761135e903690600401612480565b919060a4356001600160401b0381116103505761137f903690600401612480565b9060c4356001600160401b0381116103505761139f903690600401612480565b60e4356001600160401b038111610350576113be903690600401612480565b939094610104356001600160401b038111610350576113e1903690600401612480565b979099610124356001600160401b03811161035057611404903690600401612480565b9060805299610144356001600160401b03811161035057611429903690600401612480565b60c05260e052610164356001600160401b0381116103505761144f903690600401612480565b610200526101205234158015906123cc575b1561237c576102c051156123435789156122fe57610184356121f4575b611545999794611527946114f861153699956115579f9c99956114d2611519966000546101005260405160a0526114b660a051612528565b6101005160a0515233602060a051015236906102c05190612621565b604060a05101526114ea366101405161022051612621565b606060a05101523691612621565b608060a051015260643560a08051015260843560c060a05101523691612621565b60e060a05101523691612621565b61010060a05101523691612621565b61012060a05101523691612621565b61014060a05101523690608051612621565b61016060a051015261156e3660c05160e051612621565b61018060a0510152611587366102005161012051612621565b6101a060a0510152346101c060a0510152610184356101e060a0510152600061020060a0510152600061022060a0510152600061024060a0510152600061026060a0510152610100516000526001602052604060002060a0515181556001810160018060a01b03602060a0510151166bffffffffffffffffffffffff60a01b8254161790556002810190604060a05101519182516001600160401b038111611b665761163382546124ee565b601f81116121ac575b506020601f8211600114612147578192939460009261213c575b50508160011b916000199060031b1c19161790555b6003810190606060a05101519182516001600160401b038111611b665761169282546124ee565b601f81116120f4575b506020601f821160011461208f5781929394600092612084575b50508160011b916000199060031b1c19161790555b6004810190608060a05101519182516001600160401b038111611b66576116f182546124ee565b601f811161203c575b506020601f8211600114611fd75781929394600092611fcc575b50508160011b916000199060031b1c19161790555b60a080510151600582015560c060a05101516006820155600781019060e060a05101519182516001600160401b038111611b665761176782546124ee565b601f8111611f84575b506020601f8211600114611f1f5781929394600092611f14575b50508160011b916000199060031b1c19161790555b600881019061010060a05101519182516001600160401b038111611b66576117c782546124ee565b601f8111611ecc575b506020601f8211600114611e675781929394600092611e5c575b50508160011b916000199060031b1c19161790555b600981019061012060a05101519182516001600160401b038111611b665761182782546124ee565b601f8111611e14575b506020601f8211600114611daf5781929394600092611da4575b50508160011b916000199060031b1c19161790555b600a81019061014060a05101519182516001600160401b038111611b665761188782546124ee565b601f8111611d5c575b506020601f8211600114611cf75781929394600092611cec575b50508160011b916000199060031b1c19161790555b600b81019061016060a05101519182516001600160401b038111611b66576118e782546124ee565b601f8111611ca4575b506020601f8211600114611c3f5781929394600092611c34575b50508160011b916000199060031b1c19161790555b600c81019061018060a05101519182516001600160401b038111611b665761194782546124ee565b601f8111611bec575b506020601f8211600114611b875781929394600092611b7c575b50508160011b916000199060031b1c19161790555b600d81016101a060a05101518051906001600160401b038211611b66576119a683546124ee565b601f8111611b1e575b50602090601f8311600114611ab057918060109492611a6e9694600092611aa5575b50508160011b916000199060031b1c19161790555b60a0516101c0810151600e8301556101e0810151600f830155610200810151929091018054610220830151610240840151610260909401516001600160b81b031990921660ff951515959095169490941793151560081b61ff00169390931791151560101b62ff0000169190911760189290921b6301000000600160b81b0316919091179055565b611aa060005433817ff6be169e9242db299e4065f846c02e09b60f1421201248fe94d6f552e8c8bd44600080a3612667565b600055005b0151905086806119d1565b90601f1983169184600052816000209260005b818110611b065750926001928592611a6e98966010989610611aed575b505050811b0190556119e6565b015160001960f88460031b161c19169055868080611ae0565b92936020600181928786015181550195019301611ac3565b836000526020600020601f840160051c81019160208510611b5c575b601f0160051c01905b818110611b5057506119af565b60008155600101611b43565b9091508190611b3a565b634e487b7160e01b600052604160045260246000fd5b01519050848061196a565b601f1982169083600052806000209160005b818110611bd457509583600195969710611bbb575b505050811b01905561197f565b015160001960f88460031b161c19169055848080611bae565b9192602060018192868b015181550194019201611b99565b826000526020600020601f830160051c81019160208410611c2a575b601f0160051c01905b818110611c1e5750611950565b60008155600101611c11565b9091508190611c08565b01519050848061190a565b601f1982169083600052806000209160005b818110611c8c57509583600195969710611c73575b505050811b01905561191f565b015160001960f88460031b161c19169055848080611c66565b9192602060018192868b015181550194019201611c51565b826000526020600020601f830160051c81019160208410611ce2575b601f0160051c01905b818110611cd657506118f0565b60008155600101611cc9565b9091508190611cc0565b0151905084806118aa565b601f1982169083600052806000209160005b818110611d4457509583600195969710611d2b575b505050811b0190556118bf565b015160001960f88460031b161c19169055848080611d1e565b9192602060018192868b015181550194019201611d09565b826000526020600020601f830160051c81019160208410611d9a575b601f0160051c01905b818110611d8e5750611890565b60008155600101611d81565b9091508190611d78565b01519050848061184a565b601f1982169083600052806000209160005b818110611dfc57509583600195969710611de3575b505050811b01905561185f565b015160001960f88460031b161c19169055848080611dd6565b9192602060018192868b015181550194019201611dc1565b826000526020600020601f830160051c81019160208410611e52575b601f0160051c01905b818110611e465750611830565b60008155600101611e39565b9091508190611e30565b0151905084806117ea565b601f1982169083600052806000209160005b818110611eb457509583600195969710611e9b575b505050811b0190556117ff565b015160001960f88460031b161c19169055848080611e8e565b9192602060018192868b015181550194019201611e79565b826000526020600020601f830160051c81019160208410611f0a575b601f0160051c01905b818110611efe57506117d0565b60008155600101611ef1565b9091508190611ee8565b01519050848061178a565b601f1982169083600052806000209160005b818110611f6c57509583600195969710611f53575b505050811b01905561179f565b015160001960f88460031b161c19169055848080611f46565b9192602060018192868b015181550194019201611f31565b826000526020600020601f830160051c81019160208410611fc2575b601f0160051c01905b818110611fb65750611770565b60008155600101611fa9565b9091508190611fa0565b015190508480611714565b601f1982169083600052806000209160005b8181106120245750958360019596971061200b575b505050811b019055611729565b015160001960f88460031b161c19169055848080611ffe565b9192602060018192868b015181550194019201611fe9565b826000526020600020601f830160051c8101916020841061207a575b601f0160051c01905b81811061206e57506116fa565b60008155600101612061565b9091508190612058565b0151905084806116b5565b601f1982169083600052806000209160005b8181106120dc575095836001959697106120c3575b505050811b0190556116ca565b015160001960f88460031b161c191690558480806120b6565b9192602060018192868b0151815501940192016120a1565b826000526020600020601f830160051c81019160208410612132575b601f0160051c01905b818110612126575061169b565b60008155600101612119565b9091508190612110565b015190508480611656565b601f1982169083600052806000209160005b8181106121945750958360019596971061217b575b505050811b01905561166b565b015160001960f88460031b161c1916905584808061216e565b9192602060018192868b015181550194019201612159565b826000526020600020601f830160051c810191602084106121ea575b601f0160051c01905b8181106121de575061163c565b600081556001016121d1565b90915081906121c8565b9591929896939a9794906040516323b872dd60e01b8152336004820152306024820152610184356044820152602081606481600073036cbd53842c5426634e7929541ec2318f3dcf7e5af19081156104c5576000916122df575b501561228057600080548152600260205260409020610184359055979a9698949793969195909491939192919061147e565b60405162461bcd60e51b815260206004820152603160248201527f55534443207472616e73666572206661696c65642e20436865636b206170707260448201527037bb30b61030b732103130b630b731b29760791b6064820152608490fd5b6122f8915060203d6020116104be576104b08183612544565b8d61224e565b60405162461bcd60e51b815260206004820152601b60248201527f4c617374207365656e206c6f636174696f6e20726571756972656400000000006044820152606490fd5b60405162461bcd60e51b815260206004820152601160248201527014195d081b985b59481c995c5d5a5c9959607a1b6044820152606490fd5b60405162461bcd60e51b815260206004820152602260248201527f45697468657220455448206f72205553444320626f756e747920726571756972604482015261195960f21b6064820152608490fd5b50610184351515611461565b34610350576000366003190112610350576020600054604051908152f35b34610350576000366003190112610350576370a0823160e01b815230600482015260208160248173036cbd53842c5426634e7929541ec2318f3dcf7e5afa80156104c55760009061244d575b602090604051908152f35b506020813d602011612478575b8161246760209383612544565b810103126103505760209051612442565b3d915061245a565b9181601f84011215610350578235916001600160401b038311610350576020838186019501011161035057565b919082519283825260005b8481106124d9575050826000602080949584010152601f8019910116010190565b806020809284010151828286010152016124b8565b90600182811c9216801561251e575b602083101461250857565b634e487b7160e01b600052602260045260246000fd5b91607f16916124fd565b61028081019081106001600160401b03821117611b6657604052565b90601f801991011681019081106001600160401b03821117611b6657604052565b9060405191826000825492612579846124ee565b80845293600181169081156125e757506001146125a0575b5061259e92500383612544565b565b90506000929192526020600020906000915b8183106125cb57505090602061259e9282010138612591565b60209193508060019154838589010152019101909184926125b2565b90506020925061259e94915060ff191682840152151560051b82010138612591565b90816020910312610350575180151581036103505790565b9291926001600160401b038211611b66576040519161264a601f8201601f191660200184612544565b829481845281830111610350578281602093846000960137010152565b60001981146126765760010190565b634e487b7160e01b600052601160045260246000fd5b6001600160401b038111611b665760051b60200190565b80518210156126b75760209160051b010190565b634e487b7160e01b600052603260045260246000fd5b156126d457565b60405162461bcd60e51b815260206004820152600d60248201526c105b1c9958591e48199bdd5b99609a1b6044820152606490fd5b1561271057565b60405162461bcd60e51b815260206004820152601260248201527114195d08191bd95cc81b9bdd08195e1a5cdd60721b6044820152606490fdfea264697066735822122063d898be3628fa8027d93bfffcf9b4a402eb090e63f62d1db90f821252db5f3964736f6c634300081c0033",
          "opcodes": "PUSH1 0x80 DUP1 PUSH1 0x40 MSTORE CALLVALUE PUSH1 0x15 JUMPI PUSH2 0x2780 SWAP1 DUP2 PUSH2 0x1B DUP3 CODECOPY RETURN JUMPDEST PUSH1 0x0 DUP1 REVERT INVALID PUSH2 0x2E0 DUP1 PUSH1 0x40 MSTORE PUSH1 0x4 CALLDATASIZE LT ISZERO PUSH2 0x14 JUMPI PUSH1 0x0 DUP1 REVERT JUMPDEST PUSH1 0x0 CALLDATALOAD PUSH1 0xE0 SHR SWAP1 DUP2 PUSH3 0x2772C2 EQ PUSH2 0x23F6 JUMPI POP DUP1 PUSH4 0x403F8CC7 EQ PUSH2 0x23D8 JUMPI DUP1 PUSH4 0x43DC70A7 EQ PUSH2 0x12E8 JUMPI DUP1 PUSH4 0x44021AD7 EQ PUSH2 0x108D JUMPI DUP1 PUSH4 0x52F2E870 EQ PUSH2 0x9E1 JUMPI DUP1 PUSH4 0x543DF5A3 EQ PUSH2 0xB6C JUMPI DUP1 PUSH4 0x5E23985B EQ PUSH2 0xA0D JUMPI DUP1 PUSH4 0x8AD50FF7 EQ PUSH2 0x9E1 JUMPI DUP1 PUSH4 0x8B504C17 EQ PUSH2 0x981 JUMPI DUP1 PUSH4 0xB3035B64 EQ PUSH2 0x846 JUMPI DUP1 PUSH4 0xBB09D9B7 EQ PUSH2 0x817 JUMPI DUP1 PUSH4 0xCFB869BF EQ PUSH2 0x5B3 JUMPI DUP1 PUSH4 0xD32BFB6C EQ PUSH2 0x355 JUMPI PUSH4 0xD89FD4B4 EQ PUSH2 0xB9 JUMPI PUSH1 0x0 DUP1 REVERT JUMPDEST CALLVALUE PUSH2 0x350 JUMPI PUSH1 0x20 CALLDATASIZE PUSH1 0x3 NOT ADD SLT PUSH2 0x350 JUMPI PUSH1 0x4 CALLDATALOAD PUSH1 0x0 SLOAD DUP2 LT PUSH2 0xDB SWAP1 PUSH2 0x2709 JUMP JUMPDEST DUP1 PUSH1 0x0 MSTORE PUSH1 0x1 PUSH1 0x20 MSTORE PUSH1 0x40 PUSH1 0x0 KECCAK256 SWAP1 DUP2 SLOAD PUSH1 0x1 PUSH1 0xA0 SHL PUSH1 0x1 SWAP1 SUB PUSH1 0x1 DUP5 ADD SLOAD AND PUSH2 0x1C0 MSTORE PUSH1 0x5 DUP4 ADD SLOAD SWAP3 PUSH1 0x6 DUP2 ADD SLOAD PUSH1 0xE DUP3 ADD SLOAD PUSH2 0x180 MSTORE PUSH1 0xF DUP3 ADD SLOAD SWAP5 PUSH1 0x10 DUP4 ADD SLOAD SWAP5 PUSH1 0x0 MSTORE PUSH1 0x2 PUSH1 0x20 MSTORE PUSH1 0x40 PUSH1 0x0 KECCAK256 SLOAD PUSH2 0x160 MSTORE PUSH1 0x2 DUP4 ADD PUSH2 0x13E SWAP1 PUSH2 0x2565 JUMP JUMPDEST PUSH2 0x1E0 MSTORE PUSH2 0x14E PUSH1 0x3 DUP5 ADD PUSH2 0x2565 JUMP JUMPDEST SWAP2 PUSH2 0x15B PUSH1 0x4 DUP6 ADD PUSH2 0x2565 JUMP JUMPDEST SWAP2 PUSH2 0x168 PUSH1 0x7 DUP7 ADD PUSH2 0x2565 JUMP JUMPDEST PUSH2 0x174 PUSH1 0x8 DUP8 ADD PUSH2 0x2565 JUMP JUMPDEST SWAP2 PUSH2 0x181 PUSH1 0x9 DUP9 ADD PUSH2 0x2565 JUMP JUMPDEST SWAP4 PUSH2 0x18E PUSH1 0xA DUP10 ADD PUSH2 0x2565 JUMP JUMPDEST SWAP6 PUSH2 0x19B PUSH1 0xB DUP11 ADD PUSH2 0x2565 JUMP JUMPDEST SWAP8 PUSH2 0x1A8 PUSH1 0xC DUP12 ADD PUSH2 0x2565 JUMP JUMPDEST SWAP10 PUSH1 0xD ADD PUSH2 0x1B5 SWAP1 PUSH2 0x2565 JUMP JUMPDEST SWAP11 PUSH1 0x40 MLOAD PUSH2 0x1A0 MSTORE PUSH2 0x1A0 MLOAD MSTORE PUSH2 0x1C0 MLOAD PUSH2 0x1A0 MLOAD PUSH1 0x20 ADD MSTORE PUSH2 0x1A0 MLOAD PUSH1 0x40 ADD PUSH2 0x2A0 SWAP1 MSTORE PUSH2 0x1A0 MLOAD PUSH2 0x2A0 ADD PUSH2 0x1E0 MLOAD SWAP1 PUSH2 0x1F0 SWAP2 PUSH2 0x24AD JUMP JUMPDEST PUSH2 0x1A0 MLOAD DUP2 SUB PUSH2 0x1A0 MLOAD PUSH1 0x60 ADD MSTORE PUSH2 0x207 SWAP2 PUSH2 0x24AD JUMP JUMPDEST PUSH2 0x1A0 MLOAD DUP2 SUB PUSH2 0x1A0 MLOAD PUSH1 0x80 ADD MSTORE PUSH2 0x21E SWAP2 PUSH2 0x24AD JUMP JUMPDEST SWAP2 PUSH2 0x1A0 MLOAD PUSH1 0xA0 ADD MSTORE PUSH2 0x1A0 MLOAD PUSH1 0xC0 ADD MSTORE PUSH2 0x1A0 MLOAD DUP2 SUB PUSH2 0x1A0 MLOAD PUSH1 0xE0 ADD MSTORE PUSH2 0x246 SWAP2 PUSH2 0x24AD JUMP JUMPDEST PUSH2 0x1A0 MLOAD DUP2 SUB PUSH2 0x1A0 MLOAD PUSH2 0x100 ADD MSTORE PUSH2 0x25E SWAP2 PUSH2 0x24AD JUMP JUMPDEST PUSH2 0x1A0 MLOAD DUP2 SUB PUSH2 0x1A0 MLOAD PUSH2 0x120 ADD MSTORE PUSH2 0x276 SWAP2 PUSH2 0x24AD JUMP JUMPDEST PUSH2 0x1A0 MLOAD DUP2 SUB PUSH2 0x1A0 MLOAD PUSH2 0x140 ADD MSTORE PUSH2 0x28E SWAP2 PUSH2 0x24AD JUMP JUMPDEST PUSH2 0x1A0 MLOAD DUP2 SUB PUSH2 0x1A0 MLOAD PUSH2 0x160 ADD MSTORE PUSH2 0x2A6 SWAP2 PUSH2 0x24AD JUMP JUMPDEST PUSH2 0x1A0 MLOAD DUP2 SUB PUSH2 0x1A0 MLOAD PUSH2 0x180 ADD MSTORE PUSH2 0x2BE SWAP2 PUSH2 0x24AD JUMP JUMPDEST PUSH2 0x1A0 MLOAD DUP2 SUB PUSH2 0x1A0 MLOAD PUSH2 0x1A0 ADD MSTORE PUSH2 0x2D6 SWAP2 PUSH2 0x24AD JUMP JUMPDEST SWAP2 PUSH2 0x180 MLOAD PUSH2 0x1A0 MLOAD PUSH2 0x1C0 ADD MSTORE PUSH2 0x1A0 MLOAD PUSH2 0x1E0 ADD MSTORE PUSH1 0xFF DUP2 AND ISZERO ISZERO PUSH2 0x1A0 MLOAD PUSH2 0x200 ADD MSTORE DUP1 PUSH1 0x8 SHR PUSH1 0xFF AND ISZERO ISZERO PUSH2 0x1A0 MLOAD PUSH2 0x220 ADD MSTORE DUP1 PUSH1 0x10 SHR PUSH1 0xFF AND ISZERO ISZERO PUSH2 0x1A0 MLOAD PUSH2 0x240 ADD MSTORE PUSH1 0x1 PUSH1 0xA0 SHL PUSH1 0x1 SWAP1 SUB SWAP1 PUSH1 0x18 SHR AND PUSH2 0x1A0 MLOAD PUSH2 0x260 ADD MSTORE PUSH2 0x160 MLOAD PUSH2 0x1A0 MLOAD PUSH2 0x280 ADD MSTORE PUSH2 0x1A0 MLOAD SWAP1 SUB PUSH2 0x1A0 MLOAD RETURN JUMPDEST PUSH1 0x0 DUP1 REVERT JUMPDEST CALLVALUE PUSH2 0x350 JUMPI PUSH1 0x20 CALLDATASIZE PUSH1 0x3 NOT ADD SLT PUSH2 0x350 JUMPI PUSH1 0x4 CALLDATALOAD DUP1 PUSH1 0x0 MSTORE PUSH1 0x1 PUSH1 0x20 MSTORE PUSH1 0x40 PUSH1 0x0 KECCAK256 SWAP1 PUSH1 0x1 DUP1 PUSH1 0xA0 SHL SUB PUSH1 0x1 DUP4 ADD SLOAD AND CALLER SUB PUSH2 0x576 JUMPI PUSH1 0x10 DUP3 ADD SLOAD PUSH1 0xFF DUP2 AND PUSH2 0x53D JUMPI PUSH1 0x18 SHR PUSH1 0x1 PUSH1 0x1 PUSH1 0xA0 SHL SUB AND PUSH2 0x4F8 JUMPI PUSH1 0xE DUP3 ADD PUSH1 0x0 PUSH1 0xF DUP3 SLOAD SWAP5 ADD DUP2 DUP2 SLOAD SWAP4 SSTORE SSTORE DUP2 PUSH1 0x0 MSTORE PUSH1 0x2 PUSH1 0x20 MSTORE PUSH1 0x0 PUSH1 0x40 DUP2 KECCAK256 SSTORE DUP3 DUP1 ISZERO DUP1 ISZERO PUSH2 0x4D1 JUMPI JUMPDEST POP POP DUP1 PUSH2 0x40F JUMPI JUMPDEST PUSH1 0x40 MLOAD SWAP3 DUP4 MSTORE PUSH1 0x20 DUP4 ADD MSTORE PUSH32 0x86CB66FAABC06BAFD75E6B3E987A6E463A3D8EC871056B659E5E7B566D92AD54 PUSH1 0x40 CALLER SWAP4 LOG3 STOP JUMPDEST PUSH1 0x40 MLOAD PUSH4 0xA9059CBB PUSH1 0xE0 SHL DUP2 MSTORE CALLER PUSH1 0x4 DUP3 ADD MSTORE PUSH1 0x24 DUP2 ADD DUP3 SWAP1 MSTORE PUSH1 0x20 DUP2 PUSH1 0x44 DUP2 PUSH1 0x0 PUSH20 0x36CBD53842C5426634E7929541EC2318F3DCF7E GAS CALL SWAP1 DUP2 ISZERO PUSH2 0x4C5 JUMPI PUSH1 0x0 SWAP2 PUSH2 0x496 JUMPI JUMPDEST POP PUSH2 0x3DC JUMPI PUSH1 0x40 MLOAD PUSH3 0x461BCD PUSH1 0xE5 SHL DUP2 MSTORE PUSH1 0x20 PUSH1 0x4 DUP3 ADD MSTORE PUSH1 0x12 PUSH1 0x24 DUP3 ADD MSTORE PUSH18 0x1554D110C81C99599D5B990819985A5B1959 PUSH1 0x72 SHL PUSH1 0x44 DUP3 ADD MSTORE PUSH1 0x64 SWAP1 REVERT JUMPDEST PUSH2 0x4B8 SWAP2 POP PUSH1 0x20 RETURNDATASIZE PUSH1 0x20 GT PUSH2 0x4BE JUMPI JUMPDEST PUSH2 0x4B0 DUP2 DUP4 PUSH2 0x2544 JUMP JUMPDEST DUP2 ADD SWAP1 PUSH2 0x2609 JUMP JUMPDEST DUP5 PUSH2 0x457 JUMP JUMPDEST POP RETURNDATASIZE PUSH2 0x4A6 JUMP JUMPDEST PUSH1 0x40 MLOAD RETURNDATASIZE PUSH1 0x0 DUP3 RETURNDATACOPY RETURNDATASIZE SWAP1 REVERT JUMPDEST PUSH1 0x0 SWAP1 PUSH2 0x4EF JUMPI JUMPDEST PUSH1 0x0 DUP1 DUP1 SWAP4 DUP2 SWAP4 CALLER SWAP1 CALL ISZERO PUSH2 0x4C5 JUMPI DUP3 DUP5 PUSH2 0x3D4 JUMP JUMPDEST POP PUSH2 0x8FC PUSH2 0x4D9 JUMP JUMPDEST PUSH1 0x40 MLOAD PUSH3 0x461BCD PUSH1 0xE5 SHL DUP2 MSTORE PUSH1 0x20 PUSH1 0x4 DUP3 ADD MSTORE PUSH1 0x17 PUSH1 0x24 DUP3 ADD MSTORE PUSH32 0x46696E64657220616C72656164792061737369676E6564000000000000000000 PUSH1 0x44 DUP3 ADD MSTORE PUSH1 0x64 SWAP1 REVERT JUMPDEST PUSH1 0x40 MLOAD PUSH3 0x461BCD PUSH1 0xE5 SHL DUP2 MSTORE PUSH1 0x20 PUSH1 0x4 DUP3 ADD MSTORE PUSH1 0x11 PUSH1 0x24 DUP3 ADD MSTORE PUSH17 0x14195D08185B1C9958591E48199BDD5B99 PUSH1 0x7A SHL PUSH1 0x44 DUP3 ADD MSTORE PUSH1 0x64 SWAP1 REVERT JUMPDEST PUSH1 0x40 MLOAD PUSH3 0x461BCD PUSH1 0xE5 SHL DUP2 MSTORE PUSH1 0x20 PUSH1 0x4 DUP3 ADD MSTORE PUSH1 0x15 PUSH1 0x24 DUP3 ADD MSTORE PUSH21 0x13DB9B1E481BDDDB995C8818D85B8818D85B98D95B PUSH1 0x5A SHL PUSH1 0x44 DUP3 ADD MSTORE PUSH1 0x64 SWAP1 REVERT JUMPDEST CALLVALUE PUSH2 0x350 JUMPI PUSH1 0x20 CALLDATASIZE PUSH1 0x3 NOT ADD SLT PUSH2 0x350 JUMPI PUSH1 0x4 CALLDATALOAD PUSH1 0x0 MSTORE PUSH1 0x1 PUSH1 0x20 MSTORE PUSH1 0x40 PUSH1 0x0 KECCAK256 DUP1 SLOAD PUSH1 0x1 PUSH1 0xA0 SHL PUSH1 0x1 SWAP1 SUB PUSH1 0x1 DUP4 ADD SLOAD AND PUSH2 0x260 MSTORE PUSH1 0x2 DUP3 ADD PUSH2 0x5F6 SWAP1 PUSH2 0x2565 JUMP JUMPDEST PUSH2 0x2A0 MSTORE PUSH2 0x606 PUSH1 0x3 DUP4 ADD PUSH2 0x2565 JUMP JUMPDEST PUSH2 0x612 PUSH1 0x4 DUP5 ADD PUSH2 0x2565 JUMP JUMPDEST PUSH1 0x5 DUP5 ADD SLOAD PUSH1 0x6 DUP6 ADD SLOAD SWAP1 PUSH2 0x629 PUSH1 0x7 DUP8 ADD PUSH2 0x2565 JUMP JUMPDEST PUSH2 0x635 PUSH1 0x8 DUP9 ADD PUSH2 0x2565 JUMP JUMPDEST PUSH2 0x641 PUSH1 0x9 DUP10 ADD PUSH2 0x2565 JUMP JUMPDEST SWAP2 PUSH2 0x64E PUSH1 0xA DUP11 ADD PUSH2 0x2565 JUMP JUMPDEST SWAP4 PUSH2 0x65B PUSH1 0xB DUP12 ADD PUSH2 0x2565 JUMP JUMPDEST SWAP6 PUSH2 0x668 PUSH1 0xC DUP13 ADD PUSH2 0x2565 JUMP JUMPDEST SWAP8 PUSH2 0x675 PUSH1 0xD DUP14 ADD PUSH2 0x2565 JUMP JUMPDEST SWAP10 PUSH1 0xE DUP14 ADD SLOAD PUSH2 0x240 MSTORE PUSH1 0xF DUP14 ADD SLOAD SWAP13 PUSH1 0x10 ADD SLOAD SWAP12 PUSH1 0x40 MLOAD PUSH2 0x280 MSTORE PUSH2 0x280 MLOAD MSTORE PUSH2 0x260 MLOAD PUSH2 0x280 MLOAD PUSH1 0x20 ADD MSTORE PUSH2 0x280 MLOAD PUSH1 0x40 ADD PUSH2 0x280 SWAP1 MSTORE PUSH2 0x280 MLOAD PUSH2 0x280 ADD PUSH2 0x2A0 MLOAD SWAP1 PUSH2 0x6C4 SWAP2 PUSH2 0x24AD JUMP JUMPDEST PUSH2 0x280 MLOAD DUP2 SUB PUSH2 0x280 MLOAD PUSH1 0x60 ADD MSTORE PUSH2 0x6DB SWAP2 PUSH2 0x24AD JUMP JUMPDEST PUSH2 0x280 MLOAD DUP2 SUB PUSH2 0x280 MLOAD PUSH1 0x80 ADD MSTORE PUSH2 0x6F2 SWAP2 PUSH2 0x24AD JUMP JUMPDEST SWAP2 PUSH2 0x280 MLOAD PUSH1 0xA0 ADD MSTORE PUSH2 0x280 MLOAD PUSH1 0xC0 ADD MSTORE PUSH2 0x280 MLOAD DUP2 SUB PUSH2 0x280 MLOAD PUSH1 0xE0 ADD MSTORE PUSH2 0x71A SWAP2 PUSH2 0x24AD JUMP JUMPDEST PUSH2 0x280 MLOAD DUP2 SUB PUSH2 0x280 MLOAD PUSH2 0x100 ADD MSTORE PUSH2 0x732 SWAP2 PUSH2 0x24AD JUMP JUMPDEST PUSH2 0x280 MLOAD DUP2 SUB PUSH2 0x280 MLOAD PUSH2 0x120 ADD MSTORE PUSH2 0x74A SWAP2 PUSH2 0x24AD JUMP JUMPDEST PUSH2 0x280 MLOAD DUP2 SUB PUSH2 0x280 MLOAD PUSH2 0x140 ADD MSTORE PUSH2 0x762 SWAP2 PUSH2 0x24AD JUMP JUMPDEST PUSH2 0x280 MLOAD DUP2 SUB PUSH2 0x280 MLOAD PUSH2 0x160 ADD MSTORE PUSH2 0x77A SWAP2 PUSH2 0x24AD JUMP JUMPDEST PUSH2 0x280 MLOAD DUP2 SUB PUSH2 0x280 MLOAD PUSH2 0x180 ADD MSTORE PUSH2 0x792 SWAP2 PUSH2 0x24AD JUMP JUMPDEST PUSH2 0x280 MLOAD DUP2 SUB PUSH2 0x280 MLOAD PUSH2 0x1A0 ADD MSTORE PUSH2 0x7AA SWAP2 PUSH2 0x24AD JUMP JUMPDEST SWAP2 PUSH2 0x240 MLOAD PUSH2 0x280 MLOAD PUSH2 0x1C0 ADD MSTORE PUSH2 0x280 MLOAD PUSH2 0x1E0 ADD MSTORE PUSH1 0xFF DUP2 AND ISZERO ISZERO PUSH2 0x280 MLOAD PUSH2 0x200 ADD MSTORE DUP1 PUSH1 0x8 SHR PUSH1 0xFF AND ISZERO ISZERO PUSH2 0x280 MLOAD PUSH2 0x220 ADD MSTORE DUP1 PUSH1 0x10 SHR PUSH1 0xFF AND ISZERO ISZERO PUSH2 0x280 MLOAD PUSH2 0x240 ADD MSTORE PUSH1 0x1 PUSH1 0xA0 SHL PUSH1 0x1 SWAP1 SUB SWAP1 PUSH1 0x18 SHR AND PUSH2 0x280 MLOAD PUSH2 0x260 ADD MSTORE PUSH2 0x280 MLOAD SWAP1 SUB PUSH2 0x280 MLOAD RETURN JUMPDEST CALLVALUE PUSH2 0x350 JUMPI PUSH1 0x0 CALLDATASIZE PUSH1 0x3 NOT ADD SLT PUSH2 0x350 JUMPI PUSH1 0x20 PUSH1 0x40 MLOAD PUSH20 0x36CBD53842C5426634E7929541EC2318F3DCF7E DUP2 MSTORE RETURN JUMPDEST CALLVALUE PUSH2 0x350 JUMPI PUSH1 0x20 CALLDATASIZE PUSH1 0x3 NOT ADD SLT PUSH2 0x350 JUMPI PUSH1 0x4 CALLDATALOAD DUP1 PUSH1 0x0 MSTORE PUSH1 0x1 PUSH1 0x20 MSTORE PUSH1 0x40 PUSH1 0x0 KECCAK256 PUSH1 0x10 DUP2 ADD SWAP1 PUSH2 0x87B PUSH1 0xFF DUP4 SLOAD AND ISZERO PUSH2 0x26CD JUMP JUMPDEST PUSH1 0x1 ADD SLOAD PUSH1 0x1 PUSH1 0x1 PUSH1 0xA0 SHL SUB AND PUSH2 0x893 DUP2 ISZERO ISZERO PUSH2 0x2709 JUMP JUMPDEST CALLER EQ PUSH2 0x943 JUMPI DUP1 SLOAD PUSH4 0x1000000 PUSH1 0x1 PUSH1 0xB8 SHL SUB NOT AND CALLER PUSH1 0x18 SHL PUSH4 0x1000000 PUSH1 0x1 PUSH1 0xB8 SHL SUB AND OR DUP2 SSTORE DUP1 SLOAD PUSH3 0xFF0000 NOT DUP2 AND PUSH3 0x10000 OR DUP1 DUP4 SSTORE PUSH1 0x8 SHR PUSH1 0xFF AND PUSH2 0x908 JUMPI JUMPDEST DUP3 PUSH1 0x40 MLOAD SWAP1 PUSH1 0x0 DUP3 MSTORE PUSH32 0xC7DB73A2D1DC7FD351B6549EFAD129BBF568E618DBBE683ABFA0D1550A96E5AE PUSH1 0x20 CALLER SWAP4 LOG3 STOP JUMPDEST PUSH3 0xFF00FF NOT AND PUSH3 0x10001 OR SWAP1 SSTORE CALLER DUP2 PUSH32 0x2C54217AED12A18C71E20E5A6A3F13F8CFDDBB2C3A0A5F409861478C7FD39E81 PUSH1 0x0 DUP1 LOG3 DUP2 DUP1 PUSH2 0x8D7 JUMP JUMPDEST PUSH1 0x40 MLOAD PUSH3 0x461BCD PUSH1 0xE5 SHL DUP2 MSTORE PUSH1 0x20 PUSH1 0x4 DUP3 ADD MSTORE PUSH1 0x16 PUSH1 0x24 DUP3 ADD MSTORE PUSH22 0x27BBB732B91031B0B73737BA103132903334B73232B9 PUSH1 0x51 SHL PUSH1 0x44 DUP3 ADD MSTORE PUSH1 0x64 SWAP1 REVERT JUMPDEST CALLVALUE PUSH2 0x350 JUMPI PUSH1 0x0 CALLDATASIZE PUSH1 0x3 NOT ADD SLT PUSH2 0x350 JUMPI PUSH1 0x0 DUP1 SLOAD DUP2 JUMPDEST DUP2 DUP2 LT PUSH2 0x9AA JUMPI PUSH1 0x20 DUP4 PUSH1 0x40 MLOAD SWAP1 DUP2 MSTORE RETURN JUMPDEST DUP1 PUSH1 0x0 MSTORE PUSH1 0x1 PUSH1 0x20 MSTORE PUSH1 0xFF PUSH1 0x10 PUSH1 0x40 PUSH1 0x0 KECCAK256 ADD SLOAD AND ISZERO PUSH2 0x9CD JUMPI JUMPDEST PUSH1 0x1 ADD PUSH2 0x998 JUMP JUMPDEST SWAP2 PUSH2 0x9D9 PUSH1 0x1 SWAP2 PUSH2 0x2667 JUMP JUMPDEST SWAP3 SWAP1 POP PUSH2 0x9C5 JUMP JUMPDEST CALLVALUE PUSH2 0x350 JUMPI PUSH1 0x20 CALLDATASIZE PUSH1 0x3 NOT ADD SLT PUSH2 0x350 JUMPI PUSH1 0x4 CALLDATALOAD PUSH1 0x0 MSTORE PUSH1 0x2 PUSH1 0x20 MSTORE PUSH1 0x20 PUSH1 0x40 PUSH1 0x0 KECCAK256 SLOAD PUSH1 0x40 MLOAD SWAP1 DUP2 MSTORE RETURN JUMPDEST CALLVALUE PUSH2 0x350 JUMPI PUSH1 0x20 CALLDATASIZE PUSH1 0x3 NOT ADD SLT PUSH2 0x350 JUMPI PUSH1 0x4 CALLDATALOAD DUP1 PUSH1 0x0 MSTORE PUSH1 0x1 PUSH1 0x20 MSTORE PUSH1 0x40 PUSH1 0x0 KECCAK256 PUSH1 0x10 DUP2 ADD SWAP1 DUP2 SLOAD SWAP1 PUSH2 0xA44 PUSH1 0xFF DUP4 AND ISZERO PUSH2 0x26CD JUMP JUMPDEST PUSH1 0x1 ADD SLOAD PUSH1 0x1 PUSH1 0x1 PUSH1 0xA0 SHL SUB AND CALLER SUB PUSH2 0xB2E JUMPI PUSH1 0x18 DUP2 SWAP1 SHR PUSH1 0x1 PUSH1 0x1 PUSH1 0xA0 SHL SUB AND ISZERO PUSH2 0xAF9 JUMPI PUSH2 0xFF00 NOT DUP2 AND PUSH2 0x100 OR DUP1 DUP4 SSTORE PUSH1 0x10 SHR PUSH1 0xFF AND PUSH2 0xAB3 JUMPI JUMPDEST DUP3 PUSH1 0x40 MLOAD SWAP1 PUSH1 0x1 DUP3 MSTORE PUSH32 0xC7DB73A2D1DC7FD351B6549EFAD129BBF568E618DBBE683ABFA0D1550A96E5AE PUSH1 0x20 CALLER SWAP4 LOG3 STOP JUMPDEST PUSH2 0xFFFF NOT AND PUSH2 0x101 OR SWAP1 DUP2 SWAP1 SSTORE PUSH1 0x18 SHR PUSH1 0x1 PUSH1 0x1 PUSH1 0xA0 SHL SUB AND DUP2 PUSH32 0x2C54217AED12A18C71E20E5A6A3F13F8CFDDBB2C3A0A5F409861478C7FD39E81 PUSH1 0x0 DUP1 LOG3 DUP2 DUP1 PUSH2 0xA82 JUMP JUMPDEST PUSH1 0x40 MLOAD PUSH3 0x461BCD PUSH1 0xE5 SHL DUP2 MSTORE PUSH1 0x20 PUSH1 0x4 DUP3 ADD MSTORE PUSH1 0xD PUSH1 0x24 DUP3 ADD MSTORE PUSH13 0x139BC8199A5B99195C881E595D PUSH1 0x9A SHL PUSH1 0x44 DUP3 ADD MSTORE PUSH1 0x64 SWAP1 REVERT JUMPDEST PUSH1 0x40 MLOAD PUSH3 0x461BCD PUSH1 0xE5 SHL DUP2 MSTORE PUSH1 0x20 PUSH1 0x4 DUP3 ADD MSTORE PUSH1 0x16 PUSH1 0x24 DUP3 ADD MSTORE PUSH22 0x4F6E6C79206F776E65722063616E20636F6E6669726D PUSH1 0x50 SHL PUSH1 0x44 DUP3 ADD MSTORE PUSH1 0x64 SWAP1 REVERT JUMPDEST CALLVALUE PUSH2 0x350 JUMPI PUSH1 0x0 CALLDATASIZE PUSH1 0x3 NOT ADD SLT PUSH2 0x350 JUMPI PUSH1 0x0 DUP1 DUP1 SLOAD SWAP2 JUMPDEST DUP3 DUP2 LT PUSH2 0x1056 JUMPI POP PUSH2 0xB95 DUP2 PUSH2 0x268C JUMP JUMPDEST SWAP1 PUSH2 0xBA3 PUSH1 0x40 MLOAD SWAP3 DUP4 PUSH2 0x2544 JUMP JUMPDEST DUP1 DUP3 MSTORE PUSH2 0xBAF DUP2 PUSH2 0x268C JUMP JUMPDEST PUSH1 0x20 DUP4 ADD SWAP4 SWAP1 PUSH1 0x1F NOT ADD CALLDATASIZE DUP6 CALLDATACOPY PUSH2 0xBC5 DUP3 PUSH2 0x268C JUMP JUMPDEST SWAP2 PUSH2 0xBD3 PUSH1 0x40 MLOAD SWAP4 DUP5 PUSH2 0x2544 JUMP JUMPDEST DUP1 DUP4 MSTORE PUSH2 0xBE2 PUSH1 0x1F NOT SWAP2 PUSH2 0x268C JUMP JUMPDEST ADD PUSH1 0x0 JUMPDEST DUP2 DUP2 LT PUSH2 0xFA8 JUMPI POP POP PUSH1 0x0 DUP1 JUMPDEST DUP3 DUP2 LT PUSH2 0xE08 JUMPI POP POP POP PUSH1 0x40 MLOAD SWAP2 PUSH1 0x40 DUP4 ADD SWAP1 PUSH1 0x40 DUP5 MSTORE MLOAD DUP1 SWAP2 MSTORE PUSH1 0x60 DUP4 ADD SWAP4 SWAP1 PUSH1 0x0 JUMPDEST DUP2 DUP2 LT PUSH2 0xDF2 JUMPI POP POP POP DUP2 DUP4 SUB PUSH1 0x20 DUP4 ADD MSTORE DUP1 MLOAD SWAP3 DUP4 DUP2 MSTORE PUSH1 0x20 DUP2 ADD SWAP1 PUSH1 0x20 DUP1 DUP7 PUSH1 0x5 SHL DUP4 ADD ADD SWAP4 ADD SWAP2 PUSH1 0x0 SWAP2 JUMPDEST DUP7 DUP4 LT PUSH2 0xC52 JUMPI DUP6 DUP6 SUB DUP7 RETURN JUMPDEST SWAP1 SWAP2 SWAP3 SWAP4 PUSH1 0x1F NOT DUP3 DUP3 SUB ADD DUP4 MSTORE DUP5 MLOAD SWAP1 DUP2 MLOAD DUP2 MSTORE PUSH1 0x1 PUSH1 0xA0 SHL PUSH1 0x1 SWAP1 SUB PUSH1 0x20 DUP4 ADD MLOAD AND PUSH1 0x20 DUP3 ADD MSTORE PUSH1 0x40 DUP3 ADD MLOAD PUSH1 0x40 DUP3 ADD PUSH2 0x280 SWAP1 MSTORE PUSH2 0x280 DUP3 ADD PUSH2 0xC96 SWAP2 PUSH2 0x24AD JUMP JUMPDEST PUSH1 0x60 DUP4 ADD MLOAD SWAP1 DUP3 DUP2 SUB PUSH1 0x60 DUP5 ADD MSTORE PUSH2 0xCAD SWAP2 PUSH2 0x24AD JUMP JUMPDEST PUSH1 0x80 DUP4 ADD MLOAD SWAP1 DUP3 DUP2 SUB PUSH1 0x80 DUP5 ADD MSTORE PUSH2 0xCC4 SWAP2 PUSH2 0x24AD JUMP JUMPDEST PUSH1 0xA0 DUP4 ADD MLOAD PUSH1 0xA0 DUP4 ADD MSTORE PUSH1 0xC0 DUP4 ADD MLOAD PUSH1 0xC0 DUP4 ADD MSTORE PUSH1 0xE0 DUP4 ADD MLOAD SWAP1 DUP3 DUP2 SUB PUSH1 0xE0 DUP5 ADD MSTORE PUSH2 0xCEF SWAP2 PUSH2 0x24AD JUMP JUMPDEST PUSH2 0x100 DUP4 ADD MLOAD SWAP1 DUP3 DUP2 SUB PUSH2 0x100 DUP5 ADD MSTORE PUSH2 0xD08 SWAP2 PUSH2 0x24AD JUMP JUMPDEST PUSH2 0x120 DUP4 ADD MLOAD SWAP1 DUP3 DUP2 SUB PUSH2 0x120 DUP5 ADD MSTORE PUSH2 0xD21 SWAP2 PUSH2 0x24AD JUMP JUMPDEST PUSH2 0x140 DUP4 ADD MLOAD SWAP1 DUP3 DUP2 SUB PUSH2 0x140 DUP5 ADD MSTORE PUSH2 0xD3A SWAP2 PUSH2 0x24AD JUMP JUMPDEST PUSH2 0x160 DUP4 ADD MLOAD SWAP1 DUP3 DUP2 SUB PUSH2 0x160 DUP5 ADD MSTORE PUSH2 0xD53 SWAP2 PUSH2 0x24AD JUMP JUMPDEST PUSH2 0x180 DUP4 ADD MLOAD SWAP1 DUP3 DUP2 SUB PUSH2 0x180 DUP5 ADD MSTORE PUSH2 0xD6C SWAP2 PUSH2 0x24AD JUMP JUMPDEST PUSH2 0x1A0 DUP4 ADD MLOAD SWAP1 DUP3 DUP2 SUB PUSH2 0x1A0 DUP5 ADD MSTORE PUSH2 0xD85 SWAP2 PUSH2 0x24AD JUMP JUMPDEST SWAP2 PUSH2 0x1C0 DUP2 ADD MLOAD PUSH2 0x1C0 DUP4 ADD MSTORE PUSH2 0x1E0 DUP2 ADD MLOAD PUSH2 0x1E0 DUP4 ADD MSTORE PUSH2 0x200 DUP2 ADD MLOAD ISZERO ISZERO PUSH2 0x200 DUP4 ADD MSTORE PUSH2 0x220 DUP2 ADD MLOAD ISZERO ISZERO PUSH2 0x220 DUP4 ADD MSTORE PUSH2 0x240 DUP2 ADD MLOAD ISZERO ISZERO PUSH2 0x240 DUP4 ADD MSTORE PUSH1 0x1 PUSH1 0xA0 SHL PUSH1 0x1 SWAP1 SUB SWAP1 PUSH2 0x260 ADD MLOAD AND SWAP1 PUSH2 0x260 ADD MSTORE SWAP4 PUSH1 0x20 ADD SWAP2 PUSH1 0x20 ADD SWAP3 PUSH1 0x1 ADD SWAP2 SWAP3 SWAP1 PUSH2 0xC45 JUMP JUMPDEST DUP3 MLOAD DUP7 MSTORE PUSH1 0x20 SWAP6 DUP7 ADD SWAP6 SWAP1 SWAP3 ADD SWAP2 PUSH1 0x1 ADD PUSH2 0xC17 JUMP JUMPDEST DUP1 PUSH1 0x0 MSTORE PUSH1 0x1 PUSH1 0x20 MSTORE PUSH1 0xFF PUSH1 0x10 PUSH1 0x40 PUSH1 0x0 KECCAK256 ADD SLOAD AND ISZERO PUSH2 0xE2B JUMPI JUMPDEST PUSH1 0x1 ADD PUSH2 0xBF3 JUMP JUMPDEST SWAP1 PUSH2 0xFA0 DUP2 DUP4 PUSH2 0xE3D PUSH1 0x1 SWAP5 DUP10 PUSH2 0x26A3 JUMP JUMPDEST MSTORE DUP4 PUSH1 0x0 MSTORE DUP3 PUSH1 0x20 MSTORE PUSH1 0x40 PUSH1 0x0 KECCAK256 PUSH1 0x10 PUSH1 0x40 MLOAD SWAP2 PUSH2 0xE5A DUP4 PUSH2 0x2528 JUMP JUMPDEST DUP1 SLOAD DUP4 MSTORE DUP6 DUP1 PUSH1 0xA0 SHL SUB DUP7 DUP3 ADD SLOAD AND PUSH1 0x20 DUP5 ADD MSTORE PUSH2 0xE7A PUSH1 0x2 DUP3 ADD PUSH2 0x2565 JUMP JUMPDEST PUSH1 0x40 DUP5 ADD MSTORE PUSH2 0xE8B PUSH1 0x3 DUP3 ADD PUSH2 0x2565 JUMP JUMPDEST PUSH1 0x60 DUP5 ADD MSTORE PUSH2 0xE9C PUSH1 0x4 DUP3 ADD PUSH2 0x2565 JUMP JUMPDEST PUSH1 0x80 DUP5 ADD MSTORE PUSH1 0x5 DUP2 ADD SLOAD PUSH1 0xA0 DUP5 ADD MSTORE PUSH1 0x6 DUP2 ADD SLOAD PUSH1 0xC0 DUP5 ADD MSTORE PUSH2 0xEC1 PUSH1 0x7 DUP3 ADD PUSH2 0x2565 JUMP JUMPDEST PUSH1 0xE0 DUP5 ADD MSTORE PUSH2 0xED2 PUSH1 0x8 DUP3 ADD PUSH2 0x2565 JUMP JUMPDEST PUSH2 0x100 DUP5 ADD MSTORE PUSH2 0xEE4 PUSH1 0x9 DUP3 ADD PUSH2 0x2565 JUMP JUMPDEST PUSH2 0x120 DUP5 ADD MSTORE PUSH2 0xEF6 PUSH1 0xA DUP3 ADD PUSH2 0x2565 JUMP JUMPDEST PUSH2 0x140 DUP5 ADD MSTORE PUSH2 0xF08 PUSH1 0xB DUP3 ADD PUSH2 0x2565 JUMP JUMPDEST PUSH2 0x160 DUP5 ADD MSTORE PUSH2 0xF1A PUSH1 0xC DUP3 ADD PUSH2 0x2565 JUMP JUMPDEST PUSH2 0x180 DUP5 ADD MSTORE PUSH2 0xF2C PUSH1 0xD DUP3 ADD PUSH2 0x2565 JUMP JUMPDEST PUSH2 0x1A0 DUP5 ADD MSTORE PUSH1 0xE DUP2 ADD SLOAD PUSH2 0x1C0 DUP5 ADD MSTORE PUSH1 0xF DUP2 ADD SLOAD PUSH2 0x1E0 DUP5 ADD MSTORE ADD SLOAD PUSH1 0xFF DUP2 AND ISZERO ISZERO PUSH2 0x200 DUP4 ADD MSTORE PUSH1 0xFF DUP2 PUSH1 0x8 SHR AND ISZERO ISZERO PUSH2 0x220 DUP4 ADD MSTORE PUSH1 0xFF DUP2 PUSH1 0x10 SHR AND ISZERO ISZERO PUSH2 0x240 DUP4 ADD MSTORE DUP5 DUP1 PUSH1 0xA0 SHL SUB SWAP1 PUSH1 0x18 SHR AND PUSH2 0x260 DUP3 ADD MSTORE PUSH2 0xF8F DUP3 DUP9 PUSH2 0x26A3 JUMP JUMPDEST MSTORE PUSH2 0xF9A DUP2 DUP8 PUSH2 0x26A3 JUMP JUMPDEST POP PUSH2 0x2667 JUMP JUMPDEST SWAP2 SWAP1 POP PUSH2 0xE23 JUMP JUMPDEST PUSH1 0x20 SWAP1 PUSH1 0x40 MLOAD PUSH2 0xFB7 DUP2 PUSH2 0x2528 JUMP JUMPDEST PUSH1 0x0 DUP2 MSTORE PUSH1 0x0 DUP4 DUP3 ADD MSTORE PUSH1 0x60 PUSH1 0x40 DUP3 ADD MSTORE PUSH1 0x60 DUP1 DUP3 ADD MSTORE PUSH1 0x60 PUSH1 0x80 DUP3 ADD MSTORE PUSH1 0x0 PUSH1 0xA0 DUP3 ADD MSTORE PUSH1 0x0 PUSH1 0xC0 DUP3 ADD MSTORE PUSH1 0x60 PUSH1 0xE0 DUP3 ADD MSTORE PUSH1 0x60 PUSH2 0x100 DUP3 ADD MSTORE PUSH1 0x60 PUSH2 0x120 DUP3 ADD MSTORE PUSH1 0x60 PUSH2 0x140 DUP3 ADD MSTORE PUSH1 0x60 PUSH2 0x160 DUP3 ADD MSTORE PUSH1 0x60 PUSH2 0x180 DUP3 ADD MSTORE PUSH1 0x60 PUSH2 0x1A0 DUP3 ADD MSTORE PUSH1 0x0 PUSH2 0x1C0 DUP3 ADD MSTORE PUSH1 0x0 PUSH2 0x1E0 DUP3 ADD MSTORE PUSH1 0x0 PUSH2 0x200 DUP3 ADD MSTORE PUSH1 0x0 PUSH2 0x220 DUP3 ADD MSTORE PUSH1 0x0 PUSH2 0x240 DUP3 ADD MSTORE PUSH1 0x0 PUSH2 0x260 DUP3 ADD MSTORE DUP3 DUP3 DUP8 ADD ADD MSTORE ADD PUSH2 0xBE6 JUMP JUMPDEST DUP1 PUSH1 0x0 MSTORE PUSH1 0x1 PUSH1 0x20 MSTORE PUSH1 0xFF PUSH1 0x10 PUSH1 0x40 PUSH1 0x0 KECCAK256 ADD SLOAD AND ISZERO PUSH2 0x1079 JUMPI JUMPDEST PUSH1 0x1 ADD PUSH2 0xB84 JUMP JUMPDEST SWAP1 PUSH2 0x1085 PUSH1 0x1 SWAP2 PUSH2 0x2667 JUMP JUMPDEST SWAP2 SWAP1 POP PUSH2 0x1071 JUMP JUMPDEST CALLVALUE PUSH2 0x350 JUMPI PUSH1 0x20 CALLDATASIZE PUSH1 0x3 NOT ADD SLT PUSH2 0x350 JUMPI PUSH1 0x4 CALLDATALOAD DUP1 PUSH1 0x0 MSTORE PUSH1 0x1 PUSH1 0x20 MSTORE PUSH1 0x40 PUSH1 0x0 KECCAK256 SWAP1 PUSH1 0x10 DUP3 ADD SLOAD PUSH1 0xFF DUP2 AND ISZERO PUSH2 0x1290 JUMPI PUSH1 0x18 SHR PUSH1 0x1 PUSH1 0x1 PUSH1 0xA0 SHL SUB AND CALLER SUB PUSH2 0x125A JUMPI PUSH1 0xE DUP3 ADD DUP1 SLOAD SWAP3 DUP4 ISZERO DUP1 ISZERO DUP1 DUP3 PUSH2 0x124D JUMPI JUMPDEST ISZERO PUSH2 0x1213 JUMPI PUSH1 0x0 PUSH1 0xF DUP8 SWAP5 ADD DUP2 DUP2 SLOAD SWAP7 SSTORE SSTORE DUP5 PUSH1 0x0 MSTORE PUSH1 0x2 PUSH1 0x20 MSTORE PUSH1 0x0 PUSH1 0x40 DUP2 KECCAK256 SSTORE PUSH2 0x11EC JUMPI JUMPDEST POP POP DUP1 PUSH2 0x1144 JUMPI JUMPDEST PUSH1 0x40 MLOAD SWAP3 DUP4 MSTORE PUSH1 0x20 DUP4 ADD MSTORE PUSH32 0x2EEFA727CCED3362EFE12827696BBD9DF4926ABCE3C569DDAF6B9634AE1AF147 PUSH1 0x40 CALLER SWAP4 LOG3 STOP JUMPDEST PUSH1 0x40 MLOAD PUSH4 0xA9059CBB PUSH1 0xE0 SHL DUP2 MSTORE CALLER PUSH1 0x4 DUP3 ADD MSTORE PUSH1 0x24 DUP2 ADD DUP3 SWAP1 MSTORE PUSH1 0x20 DUP2 PUSH1 0x44 DUP2 PUSH1 0x0 PUSH20 0x36CBD53842C5426634E7929541EC2318F3DCF7E GAS CALL SWAP1 DUP2 ISZERO PUSH2 0x4C5 JUMPI PUSH1 0x0 SWAP2 PUSH2 0x11CD JUMPI JUMPDEST POP PUSH2 0x1111 JUMPI PUSH1 0x40 MLOAD PUSH3 0x461BCD PUSH1 0xE5 SHL DUP2 MSTORE PUSH1 0x20 PUSH1 0x4 DUP3 ADD MSTORE PUSH1 0x14 PUSH1 0x24 DUP3 ADD MSTORE PUSH20 0x1554D110C81D1C985B9CD9995C8819985A5B1959 PUSH1 0x62 SHL PUSH1 0x44 DUP3 ADD MSTORE PUSH1 0x64 SWAP1 REVERT JUMPDEST PUSH2 0x11E6 SWAP2 POP PUSH1 0x20 RETURNDATASIZE PUSH1 0x20 GT PUSH2 0x4BE JUMPI PUSH2 0x4B0 DUP2 DUP4 PUSH2 0x2544 JUMP JUMPDEST DUP5 PUSH2 0x118C JUMP JUMPDEST PUSH1 0x0 SWAP1 PUSH2 0x120A JUMPI JUMPDEST PUSH1 0x0 DUP1 DUP1 SWAP4 DUP2 SWAP4 CALLER SWAP1 CALL ISZERO PUSH2 0x4C5 JUMPI DUP3 DUP5 PUSH2 0x1109 JUMP JUMPDEST POP PUSH2 0x8FC PUSH2 0x11F4 JUMP JUMPDEST PUSH1 0x40 MLOAD PUSH3 0x461BCD PUSH1 0xE5 SHL DUP2 MSTORE PUSH1 0x20 PUSH1 0x4 DUP3 ADD MSTORE PUSH1 0x12 PUSH1 0x24 DUP3 ADD MSTORE PUSH18 0x4E6F20626F756E747920746F20636C61696D PUSH1 0x70 SHL PUSH1 0x44 DUP3 ADD MSTORE PUSH1 0x64 SWAP1 REVERT JUMPDEST POP PUSH1 0xF DUP4 ADD SLOAD ISZERO ISZERO PUSH2 0x10E2 JUMP JUMPDEST PUSH1 0x40 MLOAD PUSH3 0x461BCD PUSH1 0xE5 SHL DUP2 MSTORE PUSH1 0x20 PUSH1 0x4 DUP3 ADD MSTORE PUSH1 0xE PUSH1 0x24 DUP3 ADD MSTORE PUSH14 0x2737BA103A3432903334B73232B9 PUSH1 0x91 SHL PUSH1 0x44 DUP3 ADD MSTORE PUSH1 0x64 SWAP1 REVERT JUMPDEST PUSH1 0x40 MLOAD PUSH3 0x461BCD PUSH1 0xE5 SHL DUP2 MSTORE PUSH1 0x20 PUSH1 0x4 DUP3 ADD MSTORE PUSH1 0x2A PUSH1 0x24 DUP3 ADD MSTORE PUSH32 0x506574206E6F7420636F6E6669726D656420617320666F756E6420627920626F PUSH1 0x44 DUP3 ADD MSTORE PUSH10 0x74682070617274696573 PUSH1 0xB0 SHL PUSH1 0x64 DUP3 ADD MSTORE PUSH1 0x84 SWAP1 REVERT JUMPDEST PUSH2 0x1A0 CALLDATASIZE PUSH1 0x3 NOT ADD SLT PUSH2 0x350 JUMPI PUSH1 0x4 CALLDATALOAD PUSH1 0x1 PUSH1 0x1 PUSH1 0x40 SHL SUB DUP2 GT PUSH2 0x350 JUMPI PUSH2 0x1314 SWAP1 CALLDATASIZE SWAP1 PUSH1 0x4 ADD PUSH2 0x2480 JUMP JUMPDEST PUSH2 0x2C0 MSTORE PUSH1 0x24 CALLDATALOAD PUSH1 0x1 PUSH1 0x1 PUSH1 0x40 SHL SUB DUP2 GT PUSH2 0x350 JUMPI PUSH2 0x1337 SWAP1 CALLDATASIZE SWAP1 PUSH1 0x4 ADD PUSH2 0x2480 JUMP JUMPDEST PUSH2 0x140 MSTORE PUSH2 0x220 MSTORE PUSH1 0x44 CALLDATALOAD PUSH1 0x1 PUSH1 0x1 PUSH1 0x40 SHL SUB DUP2 GT PUSH2 0x350 JUMPI PUSH2 0x135E SWAP1 CALLDATASIZE SWAP1 PUSH1 0x4 ADD PUSH2 0x2480 JUMP JUMPDEST SWAP2 SWAP1 PUSH1 0xA4 CALLDATALOAD PUSH1 0x1 PUSH1 0x1 PUSH1 0x40 SHL SUB DUP2 GT PUSH2 0x350 JUMPI PUSH2 0x137F SWAP1 CALLDATASIZE SWAP1 PUSH1 0x4 ADD PUSH2 0x2480 JUMP JUMPDEST SWAP1 PUSH1 0xC4 CALLDATALOAD PUSH1 0x1 PUSH1 0x1 PUSH1 0x40 SHL SUB DUP2 GT PUSH2 0x350 JUMPI PUSH2 0x139F SWAP1 CALLDATASIZE SWAP1 PUSH1 0x4 ADD PUSH2 0x2480 JUMP JUMPDEST PUSH1 0xE4 CALLDATALOAD PUSH1 0x1 PUSH1 0x1 PUSH1 0x40 SHL SUB DUP2 GT PUSH2 0x350 JUMPI PUSH2 0x13BE SWAP1 CALLDATASIZE SWAP1 PUSH1 0x4 ADD PUSH2 0x2480 JUMP JUMPDEST SWAP4 SWAP1 SWAP5 PUSH2 0x104 CALLDATALOAD PUSH1 0x1 PUSH1 0x1 PUSH1 0x40 SHL SUB DUP2 GT PUSH2 0x350 JUMPI PUSH2 0x13E1 SWAP1 CALLDATASIZE SWAP1 PUSH1 0x4 ADD PUSH2 0x2480 JUMP JUMPDEST SWAP8 SWAP1 SWAP10 PUSH2 0x124 CALLDATALOAD PUSH1 0x1 PUSH1 0x1 PUSH1 0x40 SHL SUB DUP2 GT PUSH2 0x350 JUMPI PUSH2 0x1404 SWAP1 CALLDATASIZE SWAP1 PUSH1 0x4 ADD PUSH2 0x2480 JUMP JUMPDEST SWAP1 PUSH1 0x80 MSTORE SWAP10 PUSH2 0x144 CALLDATALOAD PUSH1 0x1 PUSH1 0x1 PUSH1 0x40 SHL SUB DUP2 GT PUSH2 0x350 JUMPI PUSH2 0x1429 SWAP1 CALLDATASIZE SWAP1 PUSH1 0x4 ADD PUSH2 0x2480 JUMP JUMPDEST PUSH1 0xC0 MSTORE PUSH1 0xE0 MSTORE PUSH2 0x164 CALLDATALOAD PUSH1 0x1 PUSH1 0x1 PUSH1 0x40 SHL SUB DUP2 GT PUSH2 0x350 JUMPI PUSH2 0x144F SWAP1 CALLDATASIZE SWAP1 PUSH1 0x4 ADD PUSH2 0x2480 JUMP JUMPDEST PUSH2 0x200 MSTORE PUSH2 0x120 MSTORE CALLVALUE ISZERO DUP1 ISZERO SWAP1 PUSH2 0x23CC JUMPI JUMPDEST ISZERO PUSH2 0x237C JUMPI PUSH2 0x2C0 MLOAD ISZERO PUSH2 0x2343 JUMPI DUP10 ISZERO PUSH2 0x22FE JUMPI PUSH2 0x184 CALLDATALOAD PUSH2 0x21F4 JUMPI JUMPDEST PUSH2 0x1545 SWAP10 SWAP8 SWAP5 PUSH2 0x1527 SWAP5 PUSH2 0x14F8 PUSH2 0x1536 SWAP10 SWAP6 PUSH2 0x1557 SWAP16 SWAP13 SWAP10 SWAP6 PUSH2 0x14D2 PUSH2 0x1519 SWAP7 PUSH1 0x0 SLOAD PUSH2 0x100 MSTORE PUSH1 0x40 MLOAD PUSH1 0xA0 MSTORE PUSH2 0x14B6 PUSH1 0xA0 MLOAD PUSH2 0x2528 JUMP JUMPDEST PUSH2 0x100 MLOAD PUSH1 0xA0 MLOAD MSTORE CALLER PUSH1 0x20 PUSH1 0xA0 MLOAD ADD MSTORE CALLDATASIZE SWAP1 PUSH2 0x2C0 MLOAD SWAP1 PUSH2 0x2621 JUMP JUMPDEST PUSH1 0x40 PUSH1 0xA0 MLOAD ADD MSTORE PUSH2 0x14EA CALLDATASIZE PUSH2 0x140 MLOAD PUSH2 0x220 MLOAD PUSH2 0x2621 JUMP JUMPDEST PUSH1 0x60 PUSH1 0xA0 MLOAD ADD MSTORE CALLDATASIZE SWAP2 PUSH2 0x2621 JUMP JUMPDEST PUSH1 0x80 PUSH1 0xA0 MLOAD ADD MSTORE PUSH1 0x64 CALLDATALOAD PUSH1 0xA0 DUP1 MLOAD ADD MSTORE PUSH1 0x84 CALLDATALOAD PUSH1 0xC0 PUSH1 0xA0 MLOAD ADD MSTORE CALLDATASIZE SWAP2 PUSH2 0x2621 JUMP JUMPDEST PUSH1 0xE0 PUSH1 0xA0 MLOAD ADD MSTORE CALLDATASIZE SWAP2 PUSH2 0x2621 JUMP JUMPDEST PUSH2 0x100 PUSH1 0xA0 MLOAD ADD MSTORE CALLDATASIZE SWAP2 PUSH2 0x2621 JUMP JUMPDEST PUSH2 0x120 PUSH1 0xA0 MLOAD ADD MSTORE CALLDATASIZE SWAP2 PUSH2 0x2621 JUMP JUMPDEST PUSH2 0x140 PUSH1 0xA0 MLOAD ADD MSTORE CALLDATASIZE SWAP1 PUSH1 0x80 MLOAD PUSH2 0x2621 JUMP JUMPDEST PUSH2 0x160 PUSH1 0xA0 MLOAD ADD MSTORE PUSH2 0x156E CALLDATASIZE PUSH1 0xC0 MLOAD PUSH1 0xE0 MLOAD PUSH2 0x2621 JUMP JUMPDEST PUSH2 0x180 PUSH1 0xA0 MLOAD ADD MSTORE PUSH2 0x1587 CALLDATASIZE PUSH2 0x200 MLOAD PUSH2 0x120 MLOAD PUSH2 0x2621 JUMP JUMPDEST PUSH2 0x1A0 PUSH1 0xA0 MLOAD ADD MSTORE CALLVALUE PUSH2 0x1C0 PUSH1 0xA0 MLOAD ADD MSTORE PUSH2 0x184 CALLDATALOAD PUSH2 0x1E0 PUSH1 0xA0 MLOAD ADD MSTORE PUSH1 0x0 PUSH2 0x200 PUSH1 0xA0 MLOAD ADD MSTORE PUSH1 0x0 PUSH2 0x220 PUSH1 0xA0 MLOAD ADD MSTORE PUSH1 0x0 PUSH2 0x240 PUSH1 0xA0 MLOAD ADD MSTORE PUSH1 0x0 PUSH2 0x260 PUSH1 0xA0 MLOAD ADD MSTORE PUSH2 0x100 MLOAD PUSH1 0x0 MSTORE PUSH1 0x1 PUSH1 0x20 MSTORE PUSH1 0x40 PUSH1 0x0 KECCAK256 PUSH1 0xA0 MLOAD MLOAD DUP2 SSTORE PUSH1 0x1 DUP2 ADD PUSH1 0x1 DUP1 PUSH1 0xA0 SHL SUB PUSH1 0x20 PUSH1 0xA0 MLOAD ADD MLOAD AND PUSH12 0xFFFFFFFFFFFFFFFFFFFFFFFF PUSH1 0xA0 SHL DUP3 SLOAD AND OR SWAP1 SSTORE PUSH1 0x2 DUP2 ADD SWAP1 PUSH1 0x40 PUSH1 0xA0 MLOAD ADD MLOAD SWAP2 DUP3 MLOAD PUSH1 0x1 PUSH1 0x1 PUSH1 0x40 SHL SUB DUP2 GT PUSH2 0x1B66 JUMPI PUSH2 0x1633 DUP3 SLOAD PUSH2 0x24EE JUMP JUMPDEST PUSH1 0x1F DUP2 GT PUSH2 0x21AC JUMPI JUMPDEST POP PUSH1 0x20 PUSH1 0x1F DUP3 GT PUSH1 0x1 EQ PUSH2 0x2147 JUMPI DUP2 SWAP3 SWAP4 SWAP5 PUSH1 0x0 SWAP3 PUSH2 0x213C JUMPI JUMPDEST POP POP DUP2 PUSH1 0x1 SHL SWAP2 PUSH1 0x0 NOT SWAP1 PUSH1 0x3 SHL SHR NOT AND OR SWAP1 SSTORE JUMPDEST PUSH1 0x3 DUP2 ADD SWAP1 PUSH1 0x60 PUSH1 0xA0 MLOAD ADD MLOAD SWAP2 DUP3 MLOAD PUSH1 0x1 PUSH1 0x1 PUSH1 0x40 SHL SUB DUP2 GT PUSH2 0x1B66 JUMPI PUSH2 0x1692 DUP3 SLOAD PUSH2 0x24EE JUMP JUMPDEST PUSH1 0x1F DUP2 GT PUSH2 0x20F4 JUMPI JUMPDEST POP PUSH1 0x20 PUSH1 0x1F DUP3 GT PUSH1 0x1 EQ PUSH2 0x208F JUMPI DUP2 SWAP3 SWAP4 SWAP5 PUSH1 0x0 SWAP3 PUSH2 0x2084 JUMPI JUMPDEST POP POP DUP2 PUSH1 0x1 SHL SWAP2 PUSH1 0x0 NOT SWAP1 PUSH1 0x3 SHL SHR NOT AND OR SWAP1 SSTORE JUMPDEST PUSH1 0x4 DUP2 ADD SWAP1 PUSH1 0x80 PUSH1 0xA0 MLOAD ADD MLOAD SWAP2 DUP3 MLOAD PUSH1 0x1 PUSH1 0x1 PUSH1 0x40 SHL SUB DUP2 GT PUSH2 0x1B66 JUMPI PUSH2 0x16F1 DUP3 SLOAD PUSH2 0x24EE JUMP JUMPDEST PUSH1 0x1F DUP2 GT PUSH2 0x203C JUMPI JUMPDEST POP PUSH1 0x20 PUSH1 0x1F DUP3 GT PUSH1 0x1 EQ PUSH2 0x1FD7 JUMPI DUP2 SWAP3 SWAP4 SWAP5 PUSH1 0x0 SWAP3 PUSH2 0x1FCC JUMPI JUMPDEST POP POP DUP2 PUSH1 0x1 SHL SWAP2 PUSH1 0x0 NOT SWAP1 PUSH1 0x3 SHL SHR NOT AND OR SWAP1 SSTORE JUMPDEST PUSH1 0xA0 DUP1 MLOAD ADD MLOAD PUSH1 0x5 DUP3 ADD SSTORE PUSH1 0xC0 PUSH1 0xA0 MLOAD ADD MLOAD PUSH1 0x6 DUP3 ADD SSTORE PUSH1 0x7 DUP2 ADD SWAP1 PUSH1 0xE0 PUSH1 0xA0 MLOAD ADD MLOAD SWAP2 DUP3 MLOAD PUSH1 0x1 PUSH1 0x1 PUSH1 0x40 SHL SUB DUP2 GT PUSH2 0x1B66 JUMPI PUSH2 0x1767 DUP3 SLOAD PUSH2 0x24EE JUMP JUMPDEST PUSH1 0x1F DUP2 GT PUSH2 0x1F84 JUMPI JUMPDEST POP PUSH1 0x20 PUSH1 0x1F DUP3 GT PUSH1 0x1 EQ PUSH2 0x1F1F JUMPI DUP2 SWAP3 SWAP4 SWAP5 PUSH1 0x0 SWAP3 PUSH2 0x1F14 JUMPI JUMPDEST POP POP DUP2 PUSH1 0x1 SHL SWAP2 PUSH1 0x0 NOT SWAP1 PUSH1 0x3 SHL SHR NOT AND OR SWAP1 SSTORE JUMPDEST PUSH1 0x8 DUP2 ADD SWAP1 PUSH2 0x100 PUSH1 0xA0 MLOAD ADD MLOAD SWAP2 DUP3 MLOAD PUSH1 0x1 PUSH1 0x1 PUSH1 0x40 SHL SUB DUP2 GT PUSH2 0x1B66 JUMPI PUSH2 0x17C7 DUP3 SLOAD PUSH2 0x24EE JUMP JUMPDEST PUSH1 0x1F DUP2 GT PUSH2 0x1ECC JUMPI JUMPDEST POP PUSH1 0x20 PUSH1 0x1F DUP3 GT PUSH1 0x1 EQ PUSH2 0x1E67 JUMPI DUP2 SWAP3 SWAP4 SWAP5 PUSH1 0x0 SWAP3 PUSH2 0x1E5C JUMPI JUMPDEST POP POP DUP2 PUSH1 0x1 SHL SWAP2 PUSH1 0x0 NOT SWAP1 PUSH1 0x3 SHL SHR NOT AND OR SWAP1 SSTORE JUMPDEST PUSH1 0x9 DUP2 ADD SWAP1 PUSH2 0x120 PUSH1 0xA0 MLOAD ADD MLOAD SWAP2 DUP3 MLOAD PUSH1 0x1 PUSH1 0x1 PUSH1 0x40 SHL SUB DUP2 GT PUSH2 0x1B66 JUMPI PUSH2 0x1827 DUP3 SLOAD PUSH2 0x24EE JUMP JUMPDEST PUSH1 0x1F DUP2 GT PUSH2 0x1E14 JUMPI JUMPDEST POP PUSH1 0x20 PUSH1 0x1F DUP3 GT PUSH1 0x1 EQ PUSH2 0x1DAF JUMPI DUP2 SWAP3 SWAP4 SWAP5 PUSH1 0x0 SWAP3 PUSH2 0x1DA4 JUMPI JUMPDEST POP POP DUP2 PUSH1 0x1 SHL SWAP2 PUSH1 0x0 NOT SWAP1 PUSH1 0x3 SHL SHR NOT AND OR SWAP1 SSTORE JUMPDEST PUSH1 0xA DUP2 ADD SWAP1 PUSH2 0x140 PUSH1 0xA0 MLOAD ADD MLOAD SWAP2 DUP3 MLOAD PUSH1 0x1 PUSH1 0x1 PUSH1 0x40 SHL SUB DUP2 GT PUSH2 0x1B66 JUMPI PUSH2 0x1887 DUP3 SLOAD PUSH2 0x24EE JUMP JUMPDEST PUSH1 0x1F DUP2 GT PUSH2 0x1D5C JUMPI JUMPDEST POP PUSH1 0x20 PUSH1 0x1F DUP3 GT PUSH1 0x1 EQ PUSH2 0x1CF7 JUMPI DUP2 SWAP3 SWAP4 SWAP5 PUSH1 0x0 SWAP3 PUSH2 0x1CEC JUMPI JUMPDEST POP POP DUP2 PUSH1 0x1 SHL SWAP2 PUSH1 0x0 NOT SWAP1 PUSH1 0x3 SHL SHR NOT AND OR SWAP1 SSTORE JUMPDEST PUSH1 0xB DUP2 ADD SWAP1 PUSH2 0x160 PUSH1 0xA0 MLOAD ADD MLOAD SWAP2 DUP3 MLOAD PUSH1 0x1 PUSH1 0x1 PUSH1 0x40 SHL SUB DUP2 GT PUSH2 0x1B66 JUMPI PUSH2 0x18E7 DUP3 SLOAD PUSH2 0x24EE JUMP JUMPDEST PUSH1 0x1F DUP2 GT PUSH2 0x1CA4 JUMPI JUMPDEST POP PUSH1 0x20 PUSH1 0x1F DUP3 GT PUSH1 0x1 EQ PUSH2 0x1C3F JUMPI DUP2 SWAP3 SWAP4 SWAP5 PUSH1 0x0 SWAP3 PUSH2 0x1C34 JUMPI JUMPDEST POP POP DUP2 PUSH1 0x1 SHL SWAP2 PUSH1 0x0 NOT SWAP1 PUSH1 0x3 SHL SHR NOT AND OR SWAP1 SSTORE JUMPDEST PUSH1 0xC DUP2 ADD SWAP1 PUSH2 0x180 PUSH1 0xA0 MLOAD ADD MLOAD SWAP2 DUP3 MLOAD PUSH1 0x1 PUSH1 0x1 PUSH1 0x40 SHL SUB DUP2 GT PUSH2 0x1B66 JUMPI PUSH2 0x1947 DUP3 SLOAD PUSH2 0x24EE JUMP JUMPDEST PUSH1 0x1F DUP2 GT PUSH2 0x1BEC JUMPI JUMPDEST POP PUSH1 0x20 PUSH1 0x1F DUP3 GT PUSH1 0x1 EQ PUSH2 0x1B87 JUMPI DUP2 SWAP3 SWAP4 SWAP5 PUSH1 0x0 SWAP3 PUSH2 0x1B7C JUMPI JUMPDEST POP POP DUP2 PUSH1 0x1 SHL SWAP2 PUSH1 0x0 NOT SWAP1 PUSH1 0x3 SHL SHR NOT AND OR SWAP1 SSTORE JUMPDEST PUSH1 0xD DUP2 ADD PUSH2 0x1A0 PUSH1 0xA0 MLOAD ADD MLOAD DUP1 MLOAD SWAP1 PUSH1 0x1 PUSH1 0x1 PUSH1 0x40 SHL SUB DUP3 GT PUSH2 0x1B66 JUMPI PUSH2 0x19A6 DUP4 SLOAD PUSH2 0x24EE JUMP JUMPDEST PUSH1 0x1F DUP2 GT PUSH2 0x1B1E JUMPI JUMPDEST POP PUSH1 0x20 SWAP1 PUSH1 0x1F DUP4 GT PUSH1 0x1 EQ PUSH2 0x1AB0 JUMPI SWAP2 DUP1 PUSH1 0x10 SWAP5 SWAP3 PUSH2 0x1A6E SWAP7 SWAP5 PUSH1 0x0 SWAP3 PUSH2 0x1AA5 JUMPI JUMPDEST POP POP DUP2 PUSH1 0x1 SHL SWAP2 PUSH1 0x0 NOT SWAP1 PUSH1 0x3 SHL SHR NOT AND OR SWAP1 SSTORE JUMPDEST PUSH1 0xA0 MLOAD PUSH2 0x1C0 DUP2 ADD MLOAD PUSH1 0xE DUP4 ADD SSTORE PUSH2 0x1E0 DUP2 ADD MLOAD PUSH1 0xF DUP4 ADD SSTORE PUSH2 0x200 DUP2 ADD MLOAD SWAP3 SWAP1 SWAP2 ADD DUP1 SLOAD PUSH2 0x220 DUP4 ADD MLOAD PUSH2 0x240 DUP5 ADD MLOAD PUSH2 0x260 SWAP1 SWAP5 ADD MLOAD PUSH1 0x1 PUSH1 0x1 PUSH1 0xB8 SHL SUB NOT SWAP1 SWAP3 AND PUSH1 0xFF SWAP6 ISZERO ISZERO SWAP6 SWAP1 SWAP6 AND SWAP5 SWAP1 SWAP5 OR SWAP4 ISZERO ISZERO PUSH1 0x8 SHL PUSH2 0xFF00 AND SWAP4 SWAP1 SWAP4 OR SWAP2 ISZERO ISZERO PUSH1 0x10 SHL PUSH3 0xFF0000 AND SWAP2 SWAP1 SWAP2 OR PUSH1 0x18 SWAP3 SWAP1 SWAP3 SHL PUSH4 0x1000000 PUSH1 0x1 PUSH1 0xB8 SHL SUB AND SWAP2 SWAP1 SWAP2 OR SWAP1 SSTORE JUMP JUMPDEST PUSH2 0x1AA0 PUSH1 0x0 SLOAD CALLER DUP2 PUSH32 0xF6BE169E9242DB299E4065F846C02E09B60F1421201248FE94D6F552E8C8BD44 PUSH1 0x0 DUP1 LOG3 PUSH2 0x2667 JUMP JUMPDEST PUSH1 0x0 SSTORE STOP JUMPDEST ADD MLOAD SWAP1 POP DUP7 DUP1 PUSH2 0x19D1 JUMP JUMPDEST SWAP1 PUSH1 0x1F NOT DUP4 AND SWAP2 DUP5 PUSH1 0x0 MSTORE DUP2 PUSH1 0x0 KECCAK256 SWAP3 PUSH1 0x0 JUMPDEST DUP2 DUP2 LT PUSH2 0x1B06 JUMPI POP SWAP3 PUSH1 0x1 SWAP3 DUP6 SWAP3 PUSH2 0x1A6E SWAP9 SWAP7 PUSH1 0x10 SWAP9 SWAP7 LT PUSH2 0x1AED JUMPI JUMPDEST POP POP POP DUP2 SHL ADD SWAP1 SSTORE PUSH2 0x19E6 JUMP JUMPDEST ADD MLOAD PUSH1 0x0 NOT PUSH1 0xF8 DUP5 PUSH1 0x3 SHL AND SHR NOT AND SWAP1 SSTORE DUP7 DUP1 DUP1 PUSH2 0x1AE0 JUMP JUMPDEST SWAP3 SWAP4 PUSH1 0x20 PUSH1 0x1 DUP2 SWAP3 DUP8 DUP7 ADD MLOAD DUP2 SSTORE ADD SWAP6 ADD SWAP4 ADD PUSH2 0x1AC3 JUMP JUMPDEST DUP4 PUSH1 0x0 MSTORE PUSH1 0x20 PUSH1 0x0 KECCAK256 PUSH1 0x1F DUP5 ADD PUSH1 0x5 SHR DUP2 ADD SWAP2 PUSH1 0x20 DUP6 LT PUSH2 0x1B5C JUMPI JUMPDEST PUSH1 0x1F ADD PUSH1 0x5 SHR ADD SWAP1 JUMPDEST DUP2 DUP2 LT PUSH2 0x1B50 JUMPI POP PUSH2 0x19AF JUMP JUMPDEST PUSH1 0x0 DUP2 SSTORE PUSH1 0x1 ADD PUSH2 0x1B43 JUMP JUMPDEST SWAP1 SWAP2 POP DUP2 SWAP1 PUSH2 0x1B3A JUMP JUMPDEST PUSH4 0x4E487B71 PUSH1 0xE0 SHL PUSH1 0x0 MSTORE PUSH1 0x41 PUSH1 0x4 MSTORE PUSH1 0x24 PUSH1 0x0 REVERT JUMPDEST ADD MLOAD SWAP1 POP DUP5 DUP1 PUSH2 0x196A JUMP JUMPDEST PUSH1 0x1F NOT DUP3 AND SWAP1 DUP4 PUSH1 0x0 MSTORE DUP1 PUSH1 0x0 KECCAK256 SWAP2 PUSH1 0x0 JUMPDEST DUP2 DUP2 LT PUSH2 0x1BD4 JUMPI POP SWAP6 DUP4 PUSH1 0x1 SWAP6 SWAP7 SWAP8 LT PUSH2 0x1BBB JUMPI JUMPDEST POP POP POP DUP2 SHL ADD SWAP1 SSTORE PUSH2 0x197F JUMP JUMPDEST ADD MLOAD PUSH1 0x0 NOT PUSH1 0xF8 DUP5 PUSH1 0x3 SHL AND SHR NOT AND SWAP1 SSTORE DUP5 DUP1 DUP1 PUSH2 0x1BAE JUMP JUMPDEST SWAP2 SWAP3 PUSH1 0x20 PUSH1 0x1 DUP2 SWAP3 DUP7 DUP12 ADD MLOAD DUP2 SSTORE ADD SWAP5 ADD SWAP3 ADD PUSH2 0x1B99 JUMP JUMPDEST DUP3 PUSH1 0x0 MSTORE PUSH1 0x20 PUSH1 0x0 KECCAK256 PUSH1 0x1F DUP4 ADD PUSH1 0x5 SHR DUP2 ADD SWAP2 PUSH1 0x20 DUP5 LT PUSH2 0x1C2A JUMPI JUMPDEST PUSH1 0x1F ADD PUSH1 0x5 SHR ADD SWAP1 JUMPDEST DUP2 DUP2 LT PUSH2 0x1C1E JUMPI POP PUSH2 0x1950 JUMP JUMPDEST PUSH1 0x0 DUP2 SSTORE PUSH1 0x1 ADD PUSH2 0x1C11 JUMP JUMPDEST SWAP1 SWAP2 POP DUP2 SWAP1 PUSH2 0x1C08 JUMP JUMPDEST ADD MLOAD SWAP1 POP DUP5 DUP1 PUSH2 0x190A JUMP JUMPDEST PUSH1 0x1F NOT DUP3 AND SWAP1 DUP4 PUSH1 0x0 MSTORE DUP1 PUSH1 0x0 KECCAK256 SWAP2 PUSH1 0x0 JUMPDEST DUP2 DUP2 LT PUSH2 0x1C8C JUMPI POP SWAP6 DUP4 PUSH1 0x1 SWAP6 SWAP7 SWAP8 LT PUSH2 0x1C73 JUMPI JUMPDEST POP POP POP DUP2 SHL ADD SWAP1 SSTORE PUSH2 0x191F JUMP JUMPDEST ADD MLOAD PUSH1 0x0 NOT PUSH1 0xF8 DUP5 PUSH1 0x3 SHL AND SHR NOT AND SWAP1 SSTORE DUP5 DUP1 DUP1 PUSH2 0x1C66 JUMP JUMPDEST SWAP2 SWAP3 PUSH1 0x20 PUSH1 0x1 DUP2 SWAP3 DUP7 DUP12 ADD MLOAD DUP2 SSTORE ADD SWAP5 ADD SWAP3 ADD PUSH2 0x1C51 JUMP JUMPDEST DUP3 PUSH1 0x0 MSTORE PUSH1 0x20 PUSH1 0x0 KECCAK256 PUSH1 0x1F DUP4 ADD PUSH1 0x5 SHR DUP2 ADD SWAP2 PUSH1 0x20 DUP5 LT PUSH2 0x1CE2 JUMPI JUMPDEST PUSH1 0x1F ADD PUSH1 0x5 SHR ADD SWAP1 JUMPDEST DUP2 DUP2 LT PUSH2 0x1CD6 JUMPI POP PUSH2 0x18F0 JUMP JUMPDEST PUSH1 0x0 DUP2 SSTORE PUSH1 0x1 ADD PUSH2 0x1CC9 JUMP JUMPDEST SWAP1 SWAP2 POP DUP2 SWAP1 PUSH2 0x1CC0 JUMP JUMPDEST ADD MLOAD SWAP1 POP DUP5 DUP1 PUSH2 0x18AA JUMP JUMPDEST PUSH1 0x1F NOT DUP3 AND SWAP1 DUP4 PUSH1 0x0 MSTORE DUP1 PUSH1 0x0 KECCAK256 SWAP2 PUSH1 0x0 JUMPDEST DUP2 DUP2 LT PUSH2 0x1D44 JUMPI POP SWAP6 DUP4 PUSH1 0x1 SWAP6 SWAP7 SWAP8 LT PUSH2 0x1D2B JUMPI JUMPDEST POP POP POP DUP2 SHL ADD SWAP1 SSTORE PUSH2 0x18BF JUMP JUMPDEST ADD MLOAD PUSH1 0x0 NOT PUSH1 0xF8 DUP5 PUSH1 0x3 SHL AND SHR NOT AND SWAP1 SSTORE DUP5 DUP1 DUP1 PUSH2 0x1D1E JUMP JUMPDEST SWAP2 SWAP3 PUSH1 0x20 PUSH1 0x1 DUP2 SWAP3 DUP7 DUP12 ADD MLOAD DUP2 SSTORE ADD SWAP5 ADD SWAP3 ADD PUSH2 0x1D09 JUMP JUMPDEST DUP3 PUSH1 0x0 MSTORE PUSH1 0x20 PUSH1 0x0 KECCAK256 PUSH1 0x1F DUP4 ADD PUSH1 0x5 SHR DUP2 ADD SWAP2 PUSH1 0x20 DUP5 LT PUSH2 0x1D9A JUMPI JUMPDEST PUSH1 0x1F ADD PUSH1 0x5 SHR ADD SWAP1 JUMPDEST DUP2 DUP2 LT PUSH2 0x1D8E JUMPI POP PUSH2 0x1890 JUMP JUMPDEST PUSH1 0x0 DUP2 SSTORE PUSH1 0x1 ADD PUSH2 0x1D81 JUMP JUMPDEST SWAP1 SWAP2 POP DUP2 SWAP1 PUSH2 0x1D78 JUMP JUMPDEST ADD MLOAD SWAP1 POP DUP5 DUP1 PUSH2 0x184A JUMP JUMPDEST PUSH1 0x1F NOT DUP3 AND SWAP1 DUP4 PUSH1 0x0 MSTORE DUP1 PUSH1 0x0 KECCAK256 SWAP2 PUSH1 0x0 JUMPDEST DUP2 DUP2 LT PUSH2 0x1DFC JUMPI POP SWAP6 DUP4 PUSH1 0x1 SWAP6 SWAP7 SWAP8 LT PUSH2 0x1DE3 JUMPI JUMPDEST POP POP POP DUP2 SHL ADD SWAP1 SSTORE PUSH2 0x185F JUMP JUMPDEST ADD MLOAD PUSH1 0x0 NOT PUSH1 0xF8 DUP5 PUSH1 0x3 SHL AND SHR NOT AND SWAP1 SSTORE DUP5 DUP1 DUP1 PUSH2 0x1DD6 JUMP JUMPDEST SWAP2 SWAP3 PUSH1 0x20 PUSH1 0x1 DUP2 SWAP3 DUP7 DUP12 ADD MLOAD DUP2 SSTORE ADD SWAP5 ADD SWAP3 ADD PUSH2 0x1DC1 JUMP JUMPDEST DUP3 PUSH1 0x0 MSTORE PUSH1 0x20 PUSH1 0x0 KECCAK256 PUSH1 0x1F DUP4 ADD PUSH1 0x5 SHR DUP2 ADD SWAP2 PUSH1 0x20 DUP5 LT PUSH2 0x1E52 JUMPI JUMPDEST PUSH1 0x1F ADD PUSH1 0x5 SHR ADD SWAP1 JUMPDEST DUP2 DUP2 LT PUSH2 0x1E46 JUMPI POP PUSH2 0x1830 JUMP JUMPDEST PUSH1 0x0 DUP2 SSTORE PUSH1 0x1 ADD PUSH2 0x1E39 JUMP JUMPDEST SWAP1 SWAP2 POP DUP2 SWAP1 PUSH2 0x1E30 JUMP JUMPDEST ADD MLOAD SWAP1 POP DUP5 DUP1 PUSH2 0x17EA JUMP JUMPDEST PUSH1 0x1F NOT DUP3 AND SWAP1 DUP4 PUSH1 0x0 MSTORE DUP1 PUSH1 0x0 KECCAK256 SWAP2 PUSH1 0x0 JUMPDEST DUP2 DUP2 LT PUSH2 0x1EB4 JUMPI POP SWAP6 DUP4 PUSH1 0x1 SWAP6 SWAP7 SWAP8 LT PUSH2 0x1E9B JUMPI JUMPDEST POP POP POP DUP2 SHL ADD SWAP1 SSTORE PUSH2 0x17FF JUMP JUMPDEST ADD MLOAD PUSH1 0x0 NOT PUSH1 0xF8 DUP5 PUSH1 0x3 SHL AND SHR NOT AND SWAP1 SSTORE DUP5 DUP1 DUP1 PUSH2 0x1E8E JUMP JUMPDEST SWAP2 SWAP3 PUSH1 0x20 PUSH1 0x1 DUP2 SWAP3 DUP7 DUP12 ADD MLOAD DUP2 SSTORE ADD SWAP5 ADD SWAP3 ADD PUSH2 0x1E79 JUMP JUMPDEST DUP3 PUSH1 0x0 MSTORE PUSH1 0x20 PUSH1 0x0 KECCAK256 PUSH1 0x1F DUP4 ADD PUSH1 0x5 SHR DUP2 ADD SWAP2 PUSH1 0x20 DUP5 LT PUSH2 0x1F0A JUMPI JUMPDEST PUSH1 0x1F ADD PUSH1 0x5 SHR ADD SWAP1 JUMPDEST DUP2 DUP2 LT PUSH2 0x1EFE JUMPI POP PUSH2 0x17D0 JUMP JUMPDEST PUSH1 0x0 DUP2 SSTORE PUSH1 0x1 ADD PUSH2 0x1EF1 JUMP JUMPDEST SWAP1 SWAP2 POP DUP2 SWAP1 PUSH2 0x1EE8 JUMP JUMPDEST ADD MLOAD SWAP1 POP DUP5 DUP1 PUSH2 0x178A JUMP JUMPDEST PUSH1 0x1F NOT DUP3 AND SWAP1 DUP4 PUSH1 0x0 MSTORE DUP1 PUSH1 0x0 KECCAK256 SWAP2 PUSH1 0x0 JUMPDEST DUP2 DUP2 LT PUSH2 0x1F6C JUMPI POP SWAP6 DUP4 PUSH1 0x1 SWAP6 SWAP7 SWAP8 LT PUSH2 0x1F53 JUMPI JUMPDEST POP POP POP DUP2 SHL ADD SWAP1 SSTORE PUSH2 0x179F JUMP JUMPDEST ADD MLOAD PUSH1 0x0 NOT PUSH1 0xF8 DUP5 PUSH1 0x3 SHL AND SHR NOT AND SWAP1 SSTORE DUP5 DUP1 DUP1 PUSH2 0x1F46 JUMP JUMPDEST SWAP2 SWAP3 PUSH1 0x20 PUSH1 0x1 DUP2 SWAP3 DUP7 DUP12 ADD MLOAD DUP2 SSTORE ADD SWAP5 ADD SWAP3 ADD PUSH2 0x1F31 JUMP JUMPDEST DUP3 PUSH1 0x0 MSTORE PUSH1 0x20 PUSH1 0x0 KECCAK256 PUSH1 0x1F DUP4 ADD PUSH1 0x5 SHR DUP2 ADD SWAP2 PUSH1 0x20 DUP5 LT PUSH2 0x1FC2 JUMPI JUMPDEST PUSH1 0x1F ADD PUSH1 0x5 SHR ADD SWAP1 JUMPDEST DUP2 DUP2 LT PUSH2 0x1FB6 JUMPI POP PUSH2 0x1770 JUMP JUMPDEST PUSH1 0x0 DUP2 SSTORE PUSH1 0x1 ADD PUSH2 0x1FA9 JUMP JUMPDEST SWAP1 SWAP2 POP DUP2 SWAP1 PUSH2 0x1FA0 JUMP JUMPDEST ADD MLOAD SWAP1 POP DUP5 DUP1 PUSH2 0x1714 JUMP JUMPDEST PUSH1 0x1F NOT DUP3 AND SWAP1 DUP4 PUSH1 0x0 MSTORE DUP1 PUSH1 0x0 KECCAK256 SWAP2 PUSH1 0x0 JUMPDEST DUP2 DUP2 LT PUSH2 0x2024 JUMPI POP SWAP6 DUP4 PUSH1 0x1 SWAP6 SWAP7 SWAP8 LT PUSH2 0x200B JUMPI JUMPDEST POP POP POP DUP2 SHL ADD SWAP1 SSTORE PUSH2 0x1729 JUMP JUMPDEST ADD MLOAD PUSH1 0x0 NOT PUSH1 0xF8 DUP5 PUSH1 0x3 SHL AND SHR NOT AND SWAP1 SSTORE DUP5 DUP1 DUP1 PUSH2 0x1FFE JUMP JUMPDEST SWAP2 SWAP3 PUSH1 0x20 PUSH1 0x1 DUP2 SWAP3 DUP7 DUP12 ADD MLOAD DUP2 SSTORE ADD SWAP5 ADD SWAP3 ADD PUSH2 0x1FE9 JUMP JUMPDEST DUP3 PUSH1 0x0 MSTORE PUSH1 0x20 PUSH1 0x0 KECCAK256 PUSH1 0x1F DUP4 ADD PUSH1 0x5 SHR DUP2 ADD SWAP2 PUSH1 0x20 DUP5 LT PUSH2 0x207A JUMPI JUMPDEST PUSH1 0x1F ADD PUSH1 0x5 SHR ADD SWAP1 JUMPDEST DUP2 DUP2 LT PUSH2 0x206E JUMPI POP PUSH2 0x16FA JUMP JUMPDEST PUSH1 0x0 DUP2 SSTORE PUSH1 0x1 ADD PUSH2 0x2061 JUMP JUMPDEST SWAP1 SWAP2 POP DUP2 SWAP1 PUSH2 0x2058 JUMP JUMPDEST ADD MLOAD SWAP1 POP DUP5 DUP1 PUSH2 0x16B5 JUMP JUMPDEST PUSH1 0x1F NOT DUP3 AND SWAP1 DUP4 PUSH1 0x0 MSTORE DUP1 PUSH1 0x0 KECCAK256 SWAP2 PUSH1 0x0 JUMPDEST DUP2 DUP2 LT PUSH2 0x20DC JUMPI POP SWAP6 DUP4 PUSH1 0x1 SWAP6 SWAP7 SWAP8 LT PUSH2 0x20C3 JUMPI JUMPDEST POP POP POP DUP2 SHL ADD SWAP1 SSTORE PUSH2 0x16CA JUMP JUMPDEST ADD MLOAD PUSH1 0x0 NOT PUSH1 0xF8 DUP5 PUSH1 0x3 SHL AND SHR NOT AND SWAP1 SSTORE DUP5 DUP1 DUP1 PUSH2 0x20B6 JUMP JUMPDEST SWAP2 SWAP3 PUSH1 0x20 PUSH1 0x1 DUP2 SWAP3 DUP7 DUP12 ADD MLOAD DUP2 SSTORE ADD SWAP5 ADD SWAP3 ADD PUSH2 0x20A1 JUMP JUMPDEST DUP3 PUSH1 0x0 MSTORE PUSH1 0x20 PUSH1 0x0 KECCAK256 PUSH1 0x1F DUP4 ADD PUSH1 0x5 SHR DUP2 ADD SWAP2 PUSH1 0x20 DUP5 LT PUSH2 0x2132 JUMPI JUMPDEST PUSH1 0x1F ADD PUSH1 0x5 SHR ADD SWAP1 JUMPDEST DUP2 DUP2 LT PUSH2 0x2126 JUMPI POP PUSH2 0x169B JUMP JUMPDEST PUSH1 0x0 DUP2 SSTORE PUSH1 0x1 ADD PUSH2 0x2119 JUMP JUMPDEST SWAP1 SWAP2 POP DUP2 SWAP1 PUSH2 0x2110 JUMP JUMPDEST ADD MLOAD SWAP1 POP DUP5 DUP1 PUSH2 0x1656 JUMP JUMPDEST PUSH1 0x1F NOT DUP3 AND SWAP1 DUP4 PUSH1 0x0 MSTORE DUP1 PUSH1 0x0 KECCAK256 SWAP2 PUSH1 0x0 JUMPDEST DUP2 DUP2 LT PUSH2 0x2194 JUMPI POP SWAP6 DUP4 PUSH1 0x1 SWAP6 SWAP7 SWAP8 LT PUSH2 0x217B JUMPI JUMPDEST POP POP POP DUP2 SHL ADD SWAP1 SSTORE PUSH2 0x166B JUMP JUMPDEST ADD MLOAD PUSH1 0x0 NOT PUSH1 0xF8 DUP5 PUSH1 0x3 SHL AND SHR NOT AND SWAP1 SSTORE DUP5 DUP1 DUP1 PUSH2 0x216E JUMP JUMPDEST SWAP2 SWAP3 PUSH1 0x20 PUSH1 0x1 DUP2 SWAP3 DUP7 DUP12 ADD MLOAD DUP2 SSTORE ADD SWAP5 ADD SWAP3 ADD PUSH2 0x2159 JUMP JUMPDEST DUP3 PUSH1 0x0 MSTORE PUSH1 0x20 PUSH1 0x0 KECCAK256 PUSH1 0x1F DUP4 ADD PUSH1 0x5 SHR DUP2 ADD SWAP2 PUSH1 0x20 DUP5 LT PUSH2 0x21EA JUMPI JUMPDEST PUSH1 0x1F ADD PUSH1 0x5 SHR ADD SWAP1 JUMPDEST DUP2 DUP2 LT PUSH2 0x21DE JUMPI POP PUSH2 0x163C JUMP JUMPDEST PUSH1 0x0 DUP2 SSTORE PUSH1 0x1 ADD PUSH2 0x21D1 JUMP JUMPDEST SWAP1 SWAP2 POP DUP2 SWAP1 PUSH2 0x21C8 JUMP JUMPDEST SWAP6 SWAP2 SWAP3 SWAP9 SWAP7 SWAP4 SWAP11 SWAP8 SWAP5 SWAP1 PUSH1 0x40 MLOAD PUSH4 0x23B872DD PUSH1 0xE0 SHL DUP2 MSTORE CALLER PUSH1 0x4 DUP3 ADD MSTORE ADDRESS PUSH1 0x24 DUP3 ADD MSTORE PUSH2 0x184 CALLDATALOAD PUSH1 0x44 DUP3 ADD MSTORE PUSH1 0x20 DUP2 PUSH1 0x64 DUP2 PUSH1 0x0 PUSH20 0x36CBD53842C5426634E7929541EC2318F3DCF7E GAS CALL SWAP1 DUP2 ISZERO PUSH2 0x4C5 JUMPI PUSH1 0x0 SWAP2 PUSH2 0x22DF JUMPI JUMPDEST POP ISZERO PUSH2 0x2280 JUMPI PUSH1 0x0 DUP1 SLOAD DUP2 MSTORE PUSH1 0x2 PUSH1 0x20 MSTORE PUSH1 0x40 SWAP1 KECCAK256 PUSH2 0x184 CALLDATALOAD SWAP1 SSTORE SWAP8 SWAP11 SWAP7 SWAP9 SWAP5 SWAP8 SWAP4 SWAP7 SWAP2 SWAP6 SWAP1 SWAP5 SWAP2 SWAP4 SWAP2 SWAP3 SWAP2 SWAP1 PUSH2 0x147E JUMP JUMPDEST PUSH1 0x40 MLOAD PUSH3 0x461BCD PUSH1 0xE5 SHL DUP2 MSTORE PUSH1 0x20 PUSH1 0x4 DUP3 ADD MSTORE PUSH1 0x31 PUSH1 0x24 DUP3 ADD MSTORE PUSH32 0x55534443207472616E73666572206661696C65642E20436865636B2061707072 PUSH1 0x44 DUP3 ADD MSTORE PUSH17 0x37BB30B61030B732103130B630B731B297 PUSH1 0x79 SHL PUSH1 0x64 DUP3 ADD MSTORE PUSH1 0x84 SWAP1 REVERT JUMPDEST PUSH2 0x22F8 SWAP2 POP PUSH1 0x20 RETURNDATASIZE PUSH1 0x20 GT PUSH2 0x4BE JUMPI PUSH2 0x4B0 DUP2 DUP4 PUSH2 0x2544 JUMP JUMPDEST DUP14 PUSH2 0x224E JUMP JUMPDEST PUSH1 0x40 MLOAD PUSH3 0x461BCD PUSH1 0xE5 SHL DUP2 MSTORE PUSH1 0x20 PUSH1 0x4 DUP3 ADD MSTORE PUSH1 0x1B PUSH1 0x24 DUP3 ADD MSTORE PUSH32 0x4C617374207365656E206C6F636174696F6E2072657175697265640000000000 PUSH1 0x44 DUP3 ADD MSTORE PUSH1 0x64 SWAP1 REVERT JUMPDEST PUSH1 0x40 MLOAD PUSH3 0x461BCD PUSH1 0xE5 SHL DUP2 MSTORE PUSH1 0x20 PUSH1 0x4 DUP3 ADD MSTORE PUSH1 0x11 PUSH1 0x24 DUP3 ADD MSTORE PUSH17 0x14195D081B985B59481C995C5D5A5C9959 PUSH1 0x7A SHL PUSH1 0x44 DUP3 ADD MSTORE PUSH1 0x64 SWAP1 REVERT JUMPDEST PUSH1 0x40 MLOAD PUSH3 0x461BCD PUSH1 0xE5 SHL DUP2 MSTORE PUSH1 0x20 PUSH1 0x4 DUP3 ADD MSTORE PUSH1 0x22 PUSH1 0x24 DUP3 ADD MSTORE PUSH32 0x45697468657220455448206F72205553444320626F756E747920726571756972 PUSH1 0x44 DUP3 ADD MSTORE PUSH2 0x1959 PUSH1 0xF2 SHL PUSH1 0x64 DUP3 ADD MSTORE PUSH1 0x84 SWAP1 REVERT JUMPDEST POP PUSH2 0x184 CALLDATALOAD ISZERO ISZERO PUSH2 0x1461 JUMP JUMPDEST CALLVALUE PUSH2 0x350 JUMPI PUSH1 0x0 CALLDATASIZE PUSH1 0x3 NOT ADD SLT PUSH2 0x350 JUMPI PUSH1 0x20 PUSH1 0x0 SLOAD PUSH1 0x40 MLOAD SWAP1 DUP2 MSTORE RETURN JUMPDEST CALLVALUE PUSH2 0x350 JUMPI PUSH1 0x0 CALLDATASIZE PUSH1 0x3 NOT ADD SLT PUSH2 0x350 JUMPI PUSH4 0x70A08231 PUSH1 0xE0 SHL DUP2 MSTORE ADDRESS PUSH1 0x4 DUP3 ADD MSTORE PUSH1 0x20 DUP2 PUSH1 0x24 DUP2 PUSH20 0x36CBD53842C5426634E7929541EC2318F3DCF7E GAS STATICCALL DUP1 ISZERO PUSH2 0x4C5 JUMPI PUSH1 0x0 SWAP1 PUSH2 0x244D JUMPI JUMPDEST PUSH1 0x20 SWAP1 PUSH1 0x40 MLOAD SWAP1 DUP2 MSTORE RETURN JUMPDEST POP PUSH1 0x20 DUP2 RETURNDATASIZE PUSH1 0x20 GT PUSH2 0x2478 JUMPI JUMPDEST DUP2 PUSH2 0x2467 PUSH1 0x20 SWAP4 DUP4 PUSH2 0x2544 JUMP JUMPDEST DUP2 ADD SUB SLT PUSH2 0x350 JUMPI PUSH1 0x20 SWAP1 MLOAD PUSH2 0x2442 JUMP JUMPDEST RETURNDATASIZE SWAP2 POP PUSH2 0x245A JUMP JUMPDEST SWAP2 DUP2 PUSH1 0x1F DUP5 ADD SLT ISZERO PUSH2 0x350 JUMPI DUP3 CALLDATALOAD SWAP2 PUSH1 0x1 PUSH1 0x1 PUSH1 0x40 SHL SUB DUP4 GT PUSH2 0x350 JUMPI PUSH1 0x20 DUP4 DUP2 DUP7 ADD SWAP6 ADD ADD GT PUSH2 0x350 JUMPI JUMP JUMPDEST SWAP2 SWAP1 DUP3 MLOAD SWAP3 DUP4 DUP3 MSTORE PUSH1 0x0 JUMPDEST DUP5 DUP2 LT PUSH2 0x24D9 JUMPI POP POP DUP3 PUSH1 0x0 PUSH1 0x20 DUP1 SWAP5 SWAP6 DUP5 ADD ADD MSTORE PUSH1 0x1F DUP1 NOT SWAP2 ADD AND ADD ADD SWAP1 JUMP JUMPDEST DUP1 PUSH1 0x20 DUP1 SWAP3 DUP5 ADD ADD MLOAD DUP3 DUP3 DUP7 ADD ADD MSTORE ADD PUSH2 0x24B8 JUMP JUMPDEST SWAP1 PUSH1 0x1 DUP3 DUP2 SHR SWAP3 AND DUP1 ISZERO PUSH2 0x251E JUMPI JUMPDEST PUSH1 0x20 DUP4 LT EQ PUSH2 0x2508 JUMPI JUMP JUMPDEST PUSH4 0x4E487B71 PUSH1 0xE0 SHL PUSH1 0x0 MSTORE PUSH1 0x22 PUSH1 0x4 MSTORE PUSH1 0x24 PUSH1 0x0 REVERT JUMPDEST SWAP2 PUSH1 0x7F AND SWAP2 PUSH2 0x24FD JUMP JUMPDEST PUSH2 0x280 DUP2 ADD SWAP1 DUP2 LT PUSH1 0x1 PUSH1 0x1 PUSH1 0x40 SHL SUB DUP3 GT OR PUSH2 0x1B66 JUMPI PUSH1 0x40 MSTORE JUMP JUMPDEST SWAP1 PUSH1 0x1F DUP1 NOT SWAP2 ADD AND DUP2 ADD SWAP1 DUP2 LT PUSH1 0x1 PUSH1 0x1 PUSH1 0x40 SHL SUB DUP3 GT OR PUSH2 0x1B66 JUMPI PUSH1 0x40 MSTORE JUMP JUMPDEST SWAP1 PUSH1 0x40 MLOAD SWAP2 DUP3 PUSH1 0x0 DUP3 SLOAD SWAP3 PUSH2 0x2579 DUP5 PUSH2 0x24EE JUMP JUMPDEST DUP1 DUP5 MSTORE SWAP4 PUSH1 0x1 DUP2 AND SWAP1 DUP2 ISZERO PUSH2 0x25E7 JUMPI POP PUSH1 0x1 EQ PUSH2 0x25A0 JUMPI JUMPDEST POP PUSH2 0x259E SWAP3 POP SUB DUP4 PUSH2 0x2544 JUMP JUMPDEST JUMP JUMPDEST SWAP1 POP PUSH1 0x0 SWAP3 SWAP2 SWAP3 MSTORE PUSH1 0x20 PUSH1 0x0 KECCAK256 SWAP1 PUSH1 0x0 SWAP2 JUMPDEST DUP2 DUP4 LT PUSH2 0x25CB JUMPI POP POP SWAP1 PUSH1 0x20 PUSH2 0x259E SWAP3 DUP3 ADD ADD CODESIZE PUSH2 0x2591 JUMP JUMPDEST PUSH1 0x20 SWAP2 SWAP4 POP DUP1 PUSH1 0x1 SWAP2 SLOAD DUP4 DUP6 DUP10 ADD ADD MSTORE ADD SWAP2 ADD SWAP1 SWAP2 DUP5 SWAP3 PUSH2 0x25B2 JUMP JUMPDEST SWAP1 POP PUSH1 0x20 SWAP3 POP PUSH2 0x259E SWAP5 SWAP2 POP PUSH1 0xFF NOT AND DUP3 DUP5 ADD MSTORE ISZERO ISZERO PUSH1 0x5 SHL DUP3 ADD ADD CODESIZE PUSH2 0x2591 JUMP JUMPDEST SWAP1 DUP2 PUSH1 0x20 SWAP2 SUB SLT PUSH2 0x350 JUMPI MLOAD DUP1 ISZERO ISZERO DUP2 SUB PUSH2 0x350 JUMPI SWAP1 JUMP JUMPDEST SWAP3 SWAP2 SWAP3 PUSH1 0x1 PUSH1 0x1 PUSH1 0x40 SHL SUB DUP3 GT PUSH2 0x1B66 JUMPI PUSH1 0x40 MLOAD SWAP2 PUSH2 0x264A PUSH1 0x1F DUP3 ADD PUSH1 0x1F NOT AND PUSH1 0x20 ADD DUP5 PUSH2 0x2544 JUMP JUMPDEST DUP3 SWAP5 DUP2 DUP5 MSTORE DUP2 DUP4 ADD GT PUSH2 0x350 JUMPI DUP3 DUP2 PUSH1 0x20 SWAP4 DUP5 PUSH1 0x0 SWAP7 ADD CALLDATACOPY ADD ADD MSTORE JUMP JUMPDEST PUSH1 0x0 NOT DUP2 EQ PUSH2 0x2676 JUMPI PUSH1 0x1 ADD SWAP1 JUMP JUMPDEST PUSH4 0x4E487B71 PUSH1 0xE0 SHL PUSH1 0x0 MSTORE PUSH1 0x11 PUSH1 0x4 MSTORE PUSH1 0x24 PUSH1 0x0 REVERT JUMPDEST PUSH1 0x1 PUSH1 0x1 PUSH1 0x40 SHL SUB DUP2 GT PUSH2 0x1B66 JUMPI PUSH1 0x5 SHL PUSH1 0x20 ADD SWAP1 JUMP JUMPDEST DUP1 MLOAD DUP3 LT ISZERO PUSH2 0x26B7 JUMPI PUSH1 0x20 SWAP2 PUSH1 0x5 SHL ADD ADD SWAP1 JUMP JUMPDEST PUSH4 0x4E487B71 PUSH1 0xE0 SHL PUSH1 0x0 MSTORE PUSH1 0x32 PUSH1 0x4 MSTORE PUSH1 0x24 PUSH1 0x0 REVERT JUMPDEST ISZERO PUSH2 0x26D4 JUMPI JUMP JUMPDEST PUSH1 0x40 MLOAD PUSH3 0x461BCD PUSH1 0xE5 SHL DUP2 MSTORE PUSH1 0x20 PUSH1 0x4 DUP3 ADD MSTORE PUSH1 0xD PUSH1 0x24 DUP3 ADD MSTORE PUSH13 0x105B1C9958591E48199BDD5B99 PUSH1 0x9A SHL PUSH1 0x44 DUP3 ADD MSTORE PUSH1 0x64 SWAP1 REVERT JUMPDEST ISZERO PUSH2 0x2710 JUMPI JUMP JUMPDEST PUSH1 0x40 MLOAD PUSH3 0x461BCD PUSH1 0xE5 SHL DUP2 MSTORE PUSH1 0x20 PUSH1 0x4 DUP3 ADD MSTORE PUSH1 0x12 PUSH1 0x24 DUP3 ADD MSTORE PUSH18 0x14195D08191BD95CC81B9BDD08195E1A5CDD PUSH1 0x72 SHL PUSH1 0x44 DUP3 ADD MSTORE PUSH1 0x64 SWAP1 REVERT INVALID LOG2 PUSH5 0x6970667358 0x22 SLT KECCAK256 PUSH4 0xD898BE36 0x28 STATICCALL DUP1 0x27 0xD9 EXTCODESIZE SELFDESTRUCT 0xFC 0xF9 0xB4 LOG4 MUL 0xEB MULMOD 0xE PUSH4 0xF62D1DB9 0xF DUP3 SLT MSTORE 0xDB PUSH0 CODECOPY PUSH5 0x736F6C6343 STOP ADDMOD SHR STOP CALLER "
        },
        "methodIdentifiers": {
          "USDC_ADDRESS()": "bb09d9b7",
          "cancelAndRefund(uint256)": "d32bfb6c",
          "claimBounty(uint256)": "44021ad7",
          "confirmFoundByOwner(uint256)": "5e23985b",
          "escrowedUSDC(uint256)": "8ad50ff7",
          "getAllLostPets()": "543df5a3",
          "getContractUSDCBalance()": "002772c2",
          "getEscrowedUSDCBalance(uint256)": "52f2e870",
          "getLostPetsCount()": "8b504c17",
          "getPetDetails(uint256)": "d89fd4b4",
          "markAsFound(uint256)": "b3035b64",
          "nextPetId()": "403f8cc7",
          "pets(uint256)": "cfb869bf",
          "postLostPet(string,string,string,uint256,uint256,string,string,string,string,string,string,string,uint256)": "43dc70a7"
        }
      }
    }
  }
}